{
  "_format": "hh-sol-artifact-1",
  "contractName": "Crowdfunding",
  "sourceName": "contracts/Crowdfunding.sol",
  "abi": [
    {
      "inputs": [],
      "stateMutability": "nonpayable",
      "type": "constructor"
    },
    {
      "anonymous": false,
      "inputs": [
        {
          "indexed": false,
          "internalType": "address",
          "name": "contributor",
          "type": "address"
        },
        {
          "indexed": false,
          "internalType": "uint256",
          "name": "amount",
          "type": "uint256"
        },
        {
          "indexed": false,
          "internalType": "address",
          "name": "project",
          "type": "address"
        }
      ],
      "name": "ContributionReceived",
      "type": "event"
    },
    {
      "anonymous": false,
      "inputs": [
        {
          "indexed": false,
          "internalType": "uint256",
          "name": "proposalId",
          "type": "uint256"
        },
        {
          "indexed": false,
          "internalType": "address",
          "name": "projectContract",
          "type": "address"
        },
        {
          "indexed": false,
          "internalType": "uint256",
          "name": "amount",
          "type": "uint256"
        }
      ],
      "name": "FundsReleased",
      "type": "event"
    },
    {
      "anonymous": false,
      "inputs": [
        {
          "indexed": false,
          "internalType": "uint256",
          "name": "proposalId",
          "type": "uint256"
        },
        {
          "indexed": false,
          "internalType": "string",
          "name": "name",
          "type": "string"
        },
        {
          "indexed": false,
          "internalType": "string",
          "name": "description",
          "type": "string"
        },
        {
          "indexed": false,
          "internalType": "uint256",
          "name": "fundRequest",
          "type": "uint256"
        },
        {
          "indexed": false,
          "internalType": "address",
          "name": "projectContract",
          "type": "address"
        },
        {
          "indexed": false,
          "internalType": "uint256",
          "name": "executionTime",
          "type": "uint256"
        }
      ],
      "name": "ProposalCreated",
      "type": "event"
    },
    {
      "inputs": [
        {
          "internalType": "uint256",
          "name": "proposalId",
          "type": "uint256"
        }
      ],
      "name": "contribute",
      "outputs": [],
      "stateMutability": "payable",
      "type": "function"
    },
    {
      "inputs": [
        {
          "internalType": "address",
          "name": "",
          "type": "address"
        }
      ],
      "name": "contributions",
      "outputs": [
        {
          "internalType": "uint256",
          "name": "",
          "type": "uint256"
        }
      ],
      "stateMutability": "view",
      "type": "function"
    },
    {
      "inputs": [
        {
          "internalType": "string",
          "name": "_name",
          "type": "string"
        },
        {
          "internalType": "string",
          "name": "_description",
          "type": "string"
        },
        {
          "internalType": "uint256",
          "name": "_fundRequest",
          "type": "uint256"
        },
        {
          "internalType": "uint256",
          "name": "_executionTime",
          "type": "uint256"
        }
      ],
      "name": "createProposal",
      "outputs": [],
      "stateMutability": "nonpayable",
      "type": "function"
    },
    {
      "inputs": [],
      "name": "getProposalsCount",
      "outputs": [
        {
          "internalType": "uint256",
          "name": "",
          "type": "uint256"
        }
      ],
      "stateMutability": "view",
      "type": "function"
    },
    {
      "inputs": [],
      "name": "owner",
      "outputs": [
        {
          "internalType": "address",
          "name": "",
          "type": "address"
        }
      ],
      "stateMutability": "view",
      "type": "function"
    },
    {
      "inputs": [
        {
          "internalType": "uint256",
          "name": "",
          "type": "uint256"
        }
      ],
      "name": "projectAddresses",
      "outputs": [
        {
          "internalType": "address",
          "name": "",
          "type": "address"
        }
      ],
      "stateMutability": "view",
      "type": "function"
    },
    {
      "inputs": [
        {
          "internalType": "uint256",
          "name": "",
          "type": "uint256"
        }
      ],
      "name": "proposals",
      "outputs": [
        {
          "internalType": "string",
          "name": "name",
          "type": "string"
        },
        {
          "internalType": "string",
          "name": "description",
          "type": "string"
        },
        {
          "internalType": "uint256",
          "name": "fundRequest",
          "type": "uint256"
        },
        {
          "internalType": "bool",
          "name": "executed",
          "type": "bool"
        },
        {
          "internalType": "address",
          "name": "projectContract",
          "type": "address"
        },
        {
          "internalType": "uint256",
          "name": "executionTime",
          "type": "uint256"
        }
      ],
      "stateMutability": "view",
      "type": "function"
    }
  ],
  "bytecode": "0x6080604052348015600f57600080fd5b50336000806101000a81548173ffffffffffffffffffffffffffffffffffffffff021916908373ffffffffffffffffffffffffffffffffffffffff16021790555061247a8061005f6000396000f3fe6080604052600436106100705760003560e01c80638da5cb5b1161004e5780638da5cb5b1461011d57806398e527d314610148578063c1cbbca714610173578063cc13fd3b1461018f57610070565b8063013cf08b1461007557806342e94c90146100b75780636b5e1766146100f4575b600080fd5b34801561008157600080fd5b5061009c60048036038101906100979190610953565b6101cc565b6040516100ae96959493929190610a7b565b60405180910390f35b3480156100c357600080fd5b506100de60048036038101906100d99190610b16565b610355565b6040516100eb9190610b43565b60405180910390f35b34801561010057600080fd5b5061011b60048036038101906101169190610c93565b61036d565b005b34801561012957600080fd5b50610132610609565b60405161013f9190610d32565b60405180910390f35b34801561015457600080fd5b5061015d61062d565b60405161016a9190610b43565b60405180910390f35b61018d60048036038101906101889190610953565b61063a565b005b34801561019b57600080fd5b506101b660048036038101906101b19190610953565b6108c9565b6040516101c39190610d32565b60405180910390f35b600181815481106101dc57600080fd5b90600052602060002090600502016000915090508060000180546101ff90610d7c565b80601f016020809104026020016040519081016040528092919081815260200182805461022b90610d7c565b80156102785780601f1061024d57610100808354040283529160200191610278565b820191906000526020600020905b81548152906001019060200180831161025b57829003601f168201915b50505050509080600101805461028d90610d7c565b80601f01602080910402602001604051908101604052809291908181526020018280546102b990610d7c565b80156103065780601f106102db57610100808354040283529160200191610306565b820191906000526020600020905b8154815290600101906020018083116102e957829003601f168201915b5050505050908060020154908060030160009054906101000a900460ff16908060030160019054906101000a900473ffffffffffffffffffffffffffffffffffffffff16908060040154905086565b60026020528060005260406000206000915090505481565b60008054906101000a900473ffffffffffffffffffffffffffffffffffffffff1673ffffffffffffffffffffffffffffffffffffffff163373ffffffffffffffffffffffffffffffffffffffff16146103fb576040517f08c379a00000000000000000000000000000000000000000000000000000000081526004016103f290610e1f565b60405180910390fd5b60008484843360405161040d906108fc565b61041a9493929190610e3f565b604051809103906000f080158015610436573d6000803e3d6000fd5b509050600081905060016040518060c001604052808881526020018781526020018681526020016000151581526020018373ffffffffffffffffffffffffffffffffffffffff16815260200185815250908060018154018082558091505060019003906000526020600020906005020160009091909190915060008201518160000190816104c4919061103e565b5060208201518160010190816104da919061103e565b506040820151816002015560608201518160030160006101000a81548160ff02191690831515021790555060808201518160030160016101000a81548173ffffffffffffffffffffffffffffffffffffffff021916908373ffffffffffffffffffffffffffffffffffffffff16021790555060a08201518160040155505060006001808054905061056b919061113f565b9050816003600083815260200190815260200160002060006101000a81548173ffffffffffffffffffffffffffffffffffffffff021916908373ffffffffffffffffffffffffffffffffffffffff1602179055507f76292bb7e2503e8e04e1424e695ff7505f896fb50b910f71a30a90c3d30a38028188888886896040516105f896959493929190611173565b60405180910390a150505050505050565b60008054906101000a900473ffffffffffffffffffffffffffffffffffffffff1681565b6000600180549050905090565b6000341161067d576040517f08c379a000000000000000000000000000000000000000000000000000000000815260040161067490611254565b60405180910390fd5b60018054905081106106c4576040517f08c379a00000000000000000000000000000000000000000000000000000000081526004016106bb906112c0565b60405180910390fd5b600181815481106106d8576106d76112e0565b5b906000526020600020906005020160030160009054906101000a900460ff1615610737576040517f08c379a000000000000000000000000000000000000000000000000000000000815260040161072e9061135b565b60405180910390fd5b60006001828154811061074d5761074c6112e0565b5b9060005260206000209060050201905060008160030160019054906101000a900473ffffffffffffffffffffffffffffffffffffffff16905060008173ffffffffffffffffffffffffffffffffffffffff16346040516107ac906113ac565b60006040518083038185875af1925050503d80600081146107e9576040519150601f19603f3d011682016040523d82523d6000602084013e6107ee565b606091505b5050905080610832576040517f08c379a00000000000000000000000000000000000000000000000000000000081526004016108299061140d565b60405180910390fd5b34600260003373ffffffffffffffffffffffffffffffffffffffff1673ffffffffffffffffffffffffffffffffffffffff1681526020019081526020016000206000828254610881919061142d565b925050819055507f0829c5c9dc5d14e41b11cfca0f01f76eba69b648ddcf9f84afba16ba8a76bf1c3334846040516108bb939291906114b6565b60405180910390a150505050565b60036020528060005260406000206000915054906101000a900473ffffffffffffffffffffffffffffffffffffffff1681565b610f57806114ee83390190565b6000604051905090565b600080fd5b600080fd5b6000819050919050565b6109308161091d565b811461093b57600080fd5b50565b60008135905061094d81610927565b92915050565b60006020828403121561096957610968610913565b5b60006109778482850161093e565b91505092915050565b600081519050919050565b600082825260208201905092915050565b60005b838110156109ba57808201518184015260208101905061099f565b60008484015250505050565b6000601f19601f8301169050919050565b60006109e282610980565b6109ec818561098b565b93506109fc81856020860161099c565b610a05816109c6565b840191505092915050565b610a198161091d565b82525050565b60008115159050919050565b610a3481610a1f565b82525050565b600073ffffffffffffffffffffffffffffffffffffffff82169050919050565b6000610a6582610a3a565b9050919050565b610a7581610a5a565b82525050565b600060c0820190508181036000830152610a9581896109d7565b90508181036020830152610aa981886109d7565b9050610ab86040830187610a10565b610ac56060830186610a2b565b610ad26080830185610a6c565b610adf60a0830184610a10565b979650505050505050565b610af381610a5a565b8114610afe57600080fd5b50565b600081359050610b1081610aea565b92915050565b600060208284031215610b2c57610b2b610913565b5b6000610b3a84828501610b01565b91505092915050565b6000602082019050610b586000830184610a10565b92915050565b600080fd5b600080fd5b7f4e487b7100000000000000000000000000000000000000000000000000000000600052604160045260246000fd5b610ba0826109c6565b810181811067ffffffffffffffff82111715610bbf57610bbe610b68565b5b80604052505050565b6000610bd2610909565b9050610bde8282610b97565b919050565b600067ffffffffffffffff821115610bfe57610bfd610b68565b5b610c07826109c6565b9050602081019050919050565b82818337600083830152505050565b6000610c36610c3184610be3565b610bc8565b905082815260208101848484011115610c5257610c51610b63565b5b610c5d848285610c14565b509392505050565b600082601f830112610c7a57610c79610b5e565b5b8135610c8a848260208601610c23565b91505092915050565b60008060008060808587031215610cad57610cac610913565b5b600085013567ffffffffffffffff811115610ccb57610cca610918565b5b610cd787828801610c65565b945050602085013567ffffffffffffffff811115610cf857610cf7610918565b5b610d0487828801610c65565b9350506040610d158782880161093e565b9250506060610d268782880161093e565b91505092959194509250565b6000602082019050610d476000830184610a6c565b92915050565b7f4e487b7100000000000000000000000000000000000000000000000000000000600052602260045260246000fd5b60006002820490506001821680610d9457607f821691505b602082108103610da757610da6610d4d565b5b50919050565b7f4f6e6c79206f776e65722063616e2063616c6c20746869732066756e6374696f60008201527f6e00000000000000000000000000000000000000000000000000000000000000602082015250565b6000610e0960218361098b565b9150610e1482610dad565b604082019050919050565b60006020820190508181036000830152610e3881610dfc565b9050919050565b60006080820190508181036000830152610e5981876109d7565b90508181036020830152610e6d81866109d7565b9050610e7c6040830185610a10565b610e896060830184610a6c565b95945050505050565b60008190508160005260206000209050919050565b60006020601f8301049050919050565b600082821b905092915050565b600060088302610ef47fffffffffffffffffffffffffffffffffffffffffffffffffffffffffffffffff82610eb7565b610efe8683610eb7565b95508019841693508086168417925050509392505050565b6000819050919050565b6000610f3b610f36610f318461091d565b610f16565b61091d565b9050919050565b6000819050919050565b610f5583610f20565b610f69610f6182610f42565b848454610ec4565b825550505050565b600090565b610f7e610f71565b610f89818484610f4c565b505050565b5b81811015610fad57610fa2600082610f76565b600181019050610f8f565b5050565b601f821115610ff257610fc381610e92565b610fcc84610ea7565b81016020851015610fdb578190505b610fef610fe785610ea7565b830182610f8e565b50505b505050565b600082821c905092915050565b600061101560001984600802610ff7565b1980831691505092915050565b600061102e8383611004565b9150826002028217905092915050565b61104782610980565b67ffffffffffffffff8111156110605761105f610b68565b5b61106a8254610d7c565b611075828285610fb1565b600060209050601f8311600181146110a85760008415611096578287015190505b6110a08582611022565b865550611108565b601f1984166110b686610e92565b60005b828110156110de578489015182556001820191506020850194506020810190506110b9565b868310156110fb57848901516110f7601f891682611004565b8355505b6001600288020188555050505b505050505050565b7f4e487b7100000000000000000000000000000000000000000000000000000000600052601160045260246000fd5b600061114a8261091d565b91506111558361091d565b925082820390508181111561116d5761116c611110565b5b92915050565b600060c0820190506111886000830189610a10565b818103602083015261119a81886109d7565b905081810360408301526111ae81876109d7565b90506111bd6060830186610a10565b6111ca6080830185610a6c565b6111d760a0830184610a10565b979650505050505050565b7f436f6e747269627574696f6e206d75737420626520677265617465722074686160008201527f6e20300000000000000000000000000000000000000000000000000000000000602082015250565b600061123e60238361098b565b9150611249826111e2565b604082019050919050565b6000602082019050818103600083015261126d81611231565b9050919050565b7f496e76616c69642070726f706f73616c20494400000000000000000000000000600082015250565b60006112aa60138361098b565b91506112b582611274565b602082019050919050565b600060208201905081810360008301526112d98161129d565b9050919050565b7f4e487b7100000000000000000000000000000000000000000000000000000000600052603260045260246000fd5b7f50726f706f73616c20616c726561647920657865637574656400000000000000600082015250565b600061134560198361098b565b91506113508261130f565b602082019050919050565b6000602082019050818103600083015261137481611338565b9050919050565b600081905092915050565b50565b600061139660008361137b565b91506113a182611386565b600082019050919050565b60006113b782611389565b9150819050919050565b7f4661696c656420746f2073656e64204574686572000000000000000000000000600082015250565b60006113f760148361098b565b9150611402826113c1565b602082019050919050565b60006020820190508181036000830152611426816113ea565b9050919050565b60006114388261091d565b91506114438361091d565b925082820190508082111561145b5761145a611110565b5b92915050565b600061147c61147761147284610a3a565b610f16565b610a3a565b9050919050565b600061148e82611461565b9050919050565b60006114a082611483565b9050919050565b6114b081611495565b82525050565b60006060820190506114cb6000830186610a6c565b6114d86020830185610a10565b6114e560408301846114a7565b94935050505056fe608060405234801561001057600080fd5b50604051610f57380380610f57833981810160405281019061003291906102cf565b83600090816100419190610585565b5082600190816100519190610585565b508160038190555080600260006101000a81548173ffffffffffffffffffffffffffffffffffffffff021916908373ffffffffffffffffffffffffffffffffffffffff16021790555060006004819055506000600560006101000a81548160ff02191690831515021790555050505050610657565b6000604051905090565b600080fd5b600080fd5b600080fd5b600080fd5b6000601f19601f8301169050919050565b7f4e487b7100000000000000000000000000000000000000000000000000000000600052604160045260246000fd5b61012d826100e4565b810181811067ffffffffffffffff8211171561014c5761014b6100f5565b5b80604052505050565b600061015f6100c6565b905061016b8282610124565b919050565b600067ffffffffffffffff82111561018b5761018a6100f5565b5b610194826100e4565b9050602081019050919050565b60005b838110156101bf5780820151818401526020810190506101a4565b60008484015250505050565b60006101de6101d984610170565b610155565b9050828152602081018484840111156101fa576101f96100df565b5b6102058482856101a1565b509392505050565b600082601f830112610222576102216100da565b5b81516102328482602086016101cb565b91505092915050565b6000819050919050565b61024e8161023b565b811461025957600080fd5b50565b60008151905061026b81610245565b92915050565b600073ffffffffffffffffffffffffffffffffffffffff82169050919050565b600061029c82610271565b9050919050565b6102ac81610291565b81146102b757600080fd5b50565b6000815190506102c9816102a3565b92915050565b600080600080608085870312156102e9576102e86100d0565b5b600085015167ffffffffffffffff811115610307576103066100d5565b5b6103138782880161020d565b945050602085015167ffffffffffffffff811115610334576103336100d5565b5b6103408782880161020d565b93505060406103518782880161025c565b9250506060610362878288016102ba565b91505092959194509250565b600081519050919050565b7f4e487b7100000000000000000000000000000000000000000000000000000000600052602260045260246000fd5b600060028204905060018216806103c057607f821691505b6020821081036103d3576103d2610379565b5b50919050565b60008190508160005260206000209050919050565b60006020601f8301049050919050565b600082821b905092915050565b60006008830261043b7fffffffffffffffffffffffffffffffffffffffffffffffffffffffffffffffff826103fe565b61044586836103fe565b95508019841693508086168417925050509392505050565b6000819050919050565b600061048261047d6104788461023b565b61045d565b61023b565b9050919050565b6000819050919050565b61049c83610467565b6104b06104a882610489565b84845461040b565b825550505050565b600090565b6104c56104b8565b6104d0818484610493565b505050565b5b818110156104f4576104e96000826104bd565b6001810190506104d6565b5050565b601f8211156105395761050a816103d9565b610513846103ee565b81016020851015610522578190505b61053661052e856103ee565b8301826104d5565b50505b505050565b600082821c905092915050565b600061055c6000198460080261053e565b1980831691505092915050565b6000610575838361054b565b9150826002028217905092915050565b61058e8261036e565b67ffffffffffffffff8111156105a7576105a66100f5565b5b6105b182546103a8565b6105bc8282856104f8565b600060209050601f8311600181146105ef57600084156105dd578287015190505b6105e78582610569565b86555061064f565b601f1984166105fd866103d9565b60005b8281101561062557848901518255600182019150602085019450602081019050610600565b86831015610642578489015161063e601f89168261054b565b8355505b6001600288020188555050505b505050505050565b6108f1806106666000396000f3fe6080604052600436106100595760003560e01c806306fdde031461015e5780637284e416146101895780637a3a0e84146101b45780638da5cb5b146101df5780639d9a7fe91461020a578063ab96cc4c1461023557610159565b3661015957600034116100a1576040517f08c379a000000000000000000000000000000000000000000000000000000000815260040161009890610570565b60405180910390fd5b600560009054906101000a900460ff16156100f1576040517f08c379a00000000000000000000000000000000000000000000000000000000081526004016100e8906105dc565b60405180910390fd5b34600460008282546101039190610635565b925050819055507f8e47b87b0ef542cdfa1659c551d88bad38aa7f452d2bbb349ab7530dfec8be8f333460405161013b9291906106b9565b60405180910390a16003546004541061015757610156610260565b5b005b600080fd5b34801561016a57600080fd5b5061017361038c565b6040516101809190610761565b60405180910390f35b34801561019557600080fd5b5061019e61041a565b6040516101ab9190610761565b60405180910390f35b3480156101c057600080fd5b506101c96104a8565b6040516101d69190610783565b60405180910390f35b3480156101eb57600080fd5b506101f46104ae565b604051610201919061079e565b60405180910390f35b34801561021657600080fd5b5061021f6104d4565b60405161022c91906107d4565b60405180910390f35b34801561024157600080fd5b5061024a6104e7565b6040516102579190610783565b60405180910390f35b60035460045410156102a7576040517f08c379a000000000000000000000000000000000000000000000000000000000815260040161029e9061083b565b60405180910390fd5b6001600560006101000a81548160ff021916908315150217905550600260009054906101000a900473ffffffffffffffffffffffffffffffffffffffff1673ffffffffffffffffffffffffffffffffffffffff166108fc6004549081150290604051600060405180830381858888f1935050505015801561032c573d6000803e3d6000fd5b507f51da7246fced8d2d4bdbf6b9b38c778c9ed909d312f94398d07fc96bd9f0dfff600260009054906101000a900473ffffffffffffffffffffffffffffffffffffffff166004546040516103829291906106b9565b60405180910390a1565b600080546103999061088a565b80601f01602080910402602001604051908101604052809291908181526020018280546103c59061088a565b80156104125780601f106103e757610100808354040283529160200191610412565b820191906000526020600020905b8154815290600101906020018083116103f557829003601f168201915b505050505081565b600180546104279061088a565b80601f01602080910402602001604051908101604052809291908181526020018280546104539061088a565b80156104a05780601f10610475576101008083540402835291602001916104a0565b820191906000526020600020905b81548152906001019060200180831161048357829003601f168201915b505050505081565b60035481565b600260009054906101000a900473ffffffffffffffffffffffffffffffffffffffff1681565b600560009054906101000a900460ff1681565b60045481565b600082825260208201905092915050565b7f436f6e747269627574696f6e206d75737420626520677265617465722074686160008201527f6e20300000000000000000000000000000000000000000000000000000000000602082015250565b600061055a6023836104ed565b9150610565826104fe565b604082019050919050565b600060208201905081810360008301526105898161054d565b9050919050565b7f50726f6a65637420616c726561647920636f6d706c6574656400000000000000600082015250565b60006105c66019836104ed565b91506105d182610590565b602082019050919050565b600060208201905081810360008301526105f5816105b9565b9050919050565b6000819050919050565b7f4e487b7100000000000000000000000000000000000000000000000000000000600052601160045260246000fd5b6000610640826105fc565b915061064b836105fc565b925082820190508082111561066357610662610606565b5b92915050565b600073ffffffffffffffffffffffffffffffffffffffff82169050919050565b600061069482610669565b9050919050565b6106a481610689565b82525050565b6106b3816105fc565b82525050565b60006040820190506106ce600083018561069b565b6106db60208301846106aa565b9392505050565b600081519050919050565b60005b8381101561070b5780820151818401526020810190506106f0565b60008484015250505050565b6000601f19601f8301169050919050565b6000610733826106e2565b61073d81856104ed565b935061074d8185602086016106ed565b61075681610717565b840191505092915050565b6000602082019050818103600083015261077b8184610728565b905092915050565b600060208201905061079860008301846106aa565b92915050565b60006020820190506107b3600083018461069b565b92915050565b60008115159050919050565b6107ce816107b9565b82525050565b60006020820190506107e960008301846107c5565b92915050565b7f46756e64696e6720676f616c206e6f7420726561636865640000000000000000600082015250565b60006108256018836104ed565b9150610830826107ef565b602082019050919050565b6000602082019050818103600083015261085481610818565b9050919050565b7f4e487b7100000000000000000000000000000000000000000000000000000000600052602260045260246000fd5b600060028204905060018216806108a257607f821691505b6020821081036108b5576108b461085b565b5b5091905056fea26469706673582212205c63cff86d50eb9ef8d064b3af2d595e220f3017467078cf44d4aee4b21773f764736f6c634300081c0033a264697066735822122003939ca028223d153fc8ef65a7ee995d08e4a893ab264f9cbdcb56eb41b26e8a64736f6c634300081c0033",
  "linkReferences": {},
  "deployedLinkReferences": {}
}