{
  "_format": "hh-sol-artifact-1",
  "contractName": "Crowdfunding",
  "sourceName": "contracts/Crowdfunding.sol",
  "abi": [
    {
      "inputs": [],
      "stateMutability": "nonpayable",
      "type": "constructor"
    },
    {
      "anonymous": false,
      "inputs": [
        {
          "indexed": false,
          "internalType": "address",
          "name": "contributor",
          "type": "address"
        },
        {
          "indexed": false,
          "internalType": "uint256",
          "name": "amount",
          "type": "uint256"
        }
      ],
      "name": "ContributionReceived",
      "type": "event"
    },
    {
      "anonymous": false,
      "inputs": [
        {
          "indexed": false,
          "internalType": "uint256",
          "name": "proposalId",
          "type": "uint256"
        },
        {
          "indexed": false,
          "internalType": "address",
          "name": "projectContract",
          "type": "address"
        },
        {
          "indexed": false,
          "internalType": "uint256",
          "name": "amount",
          "type": "uint256"
        }
      ],
      "name": "FundsReleased",
      "type": "event"
    },
    {
      "anonymous": false,
      "inputs": [
        {
          "indexed": false,
          "internalType": "uint256",
          "name": "proposalId",
          "type": "uint256"
        },
        {
          "indexed": false,
          "internalType": "string",
          "name": "description",
          "type": "string"
        },
        {
          "indexed": false,
          "internalType": "uint256",
          "name": "fundRequest",
          "type": "uint256"
        },
        {
          "indexed": false,
          "internalType": "address",
          "name": "projectContract",
          "type": "address"
        },
        {
          "indexed": false,
          "internalType": "uint256",
          "name": "executionTime",
          "type": "uint256"
        }
      ],
      "name": "ProposalCreated",
      "type": "event"
    },
    {
      "anonymous": false,
      "inputs": [
        {
          "indexed": true,
          "internalType": "address",
          "name": "user",
          "type": "address"
        },
        {
          "indexed": false,
          "internalType": "uint256",
          "name": "amount",
          "type": "uint256"
        }
      ],
      "name": "Withdrawal",
      "type": "event"
    },
    {
      "inputs": [
        {
          "internalType": "address",
          "name": "",
          "type": "address"
        }
      ],
      "name": "balances",
      "outputs": [
        {
          "internalType": "uint256",
          "name": "",
          "type": "uint256"
        }
      ],
      "stateMutability": "view",
      "type": "function"
    },
    {
      "inputs": [
        {
          "internalType": "uint256",
          "name": "proposalId",
          "type": "uint256"
        }
      ],
      "name": "contribute",
      "outputs": [],
      "stateMutability": "payable",
      "type": "function"
    },
    {
      "inputs": [
        {
          "internalType": "address",
          "name": "",
          "type": "address"
        }
      ],
      "name": "contributions",
      "outputs": [
        {
          "internalType": "uint256",
          "name": "",
          "type": "uint256"
        }
      ],
      "stateMutability": "view",
      "type": "function"
    },
    {
      "inputs": [
        {
          "internalType": "string",
          "name": "_description",
          "type": "string"
        },
        {
          "internalType": "uint256",
          "name": "_fundRequest",
          "type": "uint256"
        },
        {
          "internalType": "address payable",
          "name": "_projectContract",
          "type": "address"
        },
        {
          "internalType": "uint256",
          "name": "_executionTime",
          "type": "uint256"
        }
      ],
      "name": "createProposal",
      "outputs": [],
      "stateMutability": "nonpayable",
      "type": "function"
    },
    {
      "inputs": [
        {
          "internalType": "uint256",
          "name": "_proposalId",
          "type": "uint256"
        }
      ],
      "name": "executeProposal",
      "outputs": [],
      "stateMutability": "nonpayable",
      "type": "function"
    },
    {
      "inputs": [],
      "name": "getProposalsCount",
      "outputs": [
        {
          "internalType": "uint256",
          "name": "",
          "type": "uint256"
        }
      ],
      "stateMutability": "view",
      "type": "function"
    },
    {
      "inputs": [],
      "name": "owner",
      "outputs": [
        {
          "internalType": "address",
          "name": "",
          "type": "address"
        }
      ],
      "stateMutability": "view",
      "type": "function"
    },
    {
      "inputs": [
        {
          "internalType": "uint256",
          "name": "",
          "type": "uint256"
        }
      ],
      "name": "proposals",
      "outputs": [
        {
          "internalType": "string",
          "name": "description",
          "type": "string"
        },
        {
          "internalType": "uint256",
          "name": "fundRequest",
          "type": "uint256"
        },
        {
          "internalType": "bool",
          "name": "executed",
          "type": "bool"
        },
        {
          "internalType": "address payable",
          "name": "projectContract",
          "type": "address"
        },
        {
          "internalType": "uint256",
          "name": "executionTime",
          "type": "uint256"
        }
      ],
      "stateMutability": "view",
      "type": "function"
    },
    {
      "inputs": [],
      "name": "totalContributions",
      "outputs": [
        {
          "internalType": "uint256",
          "name": "",
          "type": "uint256"
        }
      ],
      "stateMutability": "view",
      "type": "function"
    },
    {
      "inputs": [],
      "name": "withdraw",
      "outputs": [],
      "stateMutability": "nonpayable",
      "type": "function"
    }
  ],
  "bytecode": "0x6080604052348015600f57600080fd5b50336000806101000a81548173ffffffffffffffffffffffffffffffffffffffff021916908373ffffffffffffffffffffffffffffffffffffffff160217905550611a7f8061005f6000396000f3fe6080604052600436106100915760003560e01c806342e94c901161005957806342e94c901461017f57806370a8585d146101bc5780638da5cb5b146101e557806398e527d314610210578063c1cbbca71461023b57610091565b8063013cf08b146100965780630d61b519146100d757806327e235e31461010057806337c089231461013d5780633ccfd60b14610168575b600080fd5b3480156100a257600080fd5b506100bd60048036038101906100b89190610cd6565b610257565b6040516100ce959493929190610dfe565b60405180910390f35b3480156100e357600080fd5b506100fe60048036038101906100f99190610cd6565b610352565b005b34801561010c57600080fd5b5061012760048036038101906101229190610e96565b61063f565b6040516101349190610ec3565b60405180910390f35b34801561014957600080fd5b50610152610657565b60405161015f9190610ec3565b60405180910390f35b34801561017457600080fd5b5061017d61065d565b005b34801561018b57600080fd5b506101a660048036038101906101a19190610e96565b6107c1565b6040516101b39190610ec3565b60405180910390f35b3480156101c857600080fd5b506101e360048036038101906101de919061103f565b6107d9565b005b3480156101f157600080fd5b506101fa6109bb565b60405161020791906110d1565b60405180910390f35b34801561021c57600080fd5b506102256109df565b6040516102329190610ec3565b60405180910390f35b61025560048036038101906102509190610cd6565b6109ec565b005b6003818154811061026757600080fd5b906000526020600020906004020160009150905080600001805461028a9061111b565b80601f01602080910402602001604051908101604052809291908181526020018280546102b69061111b565b80156103035780601f106102d857610100808354040283529160200191610303565b820191906000526020600020905b8154815290600101906020018083116102e657829003601f168201915b5050505050908060010154908060020160009054906101000a900460ff16908060020160019054906101000a900473ffffffffffffffffffffffffffffffffffffffff16908060030154905085565b60008054906101000a900473ffffffffffffffffffffffffffffffffffffffff1673ffffffffffffffffffffffffffffffffffffffff163373ffffffffffffffffffffffffffffffffffffffff16146103e0576040517f08c379a00000000000000000000000000000000000000000000000000000000081526004016103d7906111be565b60405180910390fd5b6000600382815481106103f6576103f56111de565b5b906000526020600020906004020190508060020160009054906101000a900460ff1615610458576040517f08c379a000000000000000000000000000000000000000000000000000000000815260040161044f90611259565b60405180910390fd5b806001015447101561049f576040517f08c379a0000000000000000000000000000000000000000000000000000000008152600401610496906112c5565b60405180910390fd5b80600301544210156104e6576040517f08c379a00000000000000000000000000000000000000000000000000000000081526004016104dd90611357565b60405180910390fd5b8060010154600254101561052f576040517f08c379a0000000000000000000000000000000000000000000000000000000008152600401610526906113e9565b60405180910390fd5b60018160020160006101000a81548160ff0219169083151502179055508060010154600260008282546105629190611438565b925050819055508060020160019054906101000a900473ffffffffffffffffffffffffffffffffffffffff1673ffffffffffffffffffffffffffffffffffffffff166108fc82600101549081150290604051600060405180830381858888f193505050501580156105d7573d6000803e3d6000fd5b507f6e3c6096795c8298a218b2cfb8bde42726ff7c9a3d27b4d3ba41ab7f74feb5fb828260020160019054906101000a900473ffffffffffffffffffffffffffffffffffffffff168360010154604051610633939291906114cb565b60405180910390a15050565b60046020528060005260406000206000915090505481565b60025481565b6000600460003373ffffffffffffffffffffffffffffffffffffffff1673ffffffffffffffffffffffffffffffffffffffff168152602001908152602001600020549050600081116106e4576040517f08c379a00000000000000000000000000000000000000000000000000000000081526004016106db9061154e565b60405180910390fd5b6000600460003373ffffffffffffffffffffffffffffffffffffffff1673ffffffffffffffffffffffffffffffffffffffff168152602001908152602001600020819055503373ffffffffffffffffffffffffffffffffffffffff166108fc829081150290604051600060405180830381858888f1935050505015801561076f573d6000803e3d6000fd5b503373ffffffffffffffffffffffffffffffffffffffff167f7fcf532c15f0a6db0bd6d0e038bea71d30d808c7d98cb3bf7268a95bf5081b65826040516107b69190610ec3565b60405180910390a250565b60016020528060005260406000206000915090505481565b60008054906101000a900473ffffffffffffffffffffffffffffffffffffffff1673ffffffffffffffffffffffffffffffffffffffff163373ffffffffffffffffffffffffffffffffffffffff1614610867576040517f08c379a000000000000000000000000000000000000000000000000000000000815260040161085e906111be565b60405180910390fd5b60036040518060a001604052808681526020018581526020016000151581526020018473ffffffffffffffffffffffffffffffffffffffff16815260200183815250908060018154018082558091505060019003906000526020600020906004020160009091909190915060008201518160000190816108e79190611710565b506020820151816001015560408201518160020160006101000a81548160ff02191690831515021790555060608201518160020160016101000a81548173ffffffffffffffffffffffffffffffffffffffff021916908373ffffffffffffffffffffffffffffffffffffffff1602179055506080820151816003015550507f8d35b72fd3f082426bb4cd3801396bf51e9e77a2d5cd5ecec078b485a107b71f60016003805490506109989190611438565b858585856040516109ad9594939291906117e2565b60405180910390a150505050565b60008054906101000a900473ffffffffffffffffffffffffffffffffffffffff1681565b6000600380549050905090565b60003411610a2f576040517f08c379a0000000000000000000000000000000000000000000000000000000008152600401610a26906118ae565b60405180910390fd5b6003805490508110610a76576040517f08c379a0000000000000000000000000000000000000000000000000000000008152600401610a6d9061191a565b60405180910390fd5b60038181548110610a8a57610a896111de565b5b906000526020600020906004020160020160009054906101000a900460ff1615610ae9576040517f08c379a0000000000000000000000000000000000000000000000000000000008152600401610ae090611259565b60405180910390fd5b600060038281548110610aff57610afe6111de565b5b9060005260206000209060040201905060008160020160019054906101000a900473ffffffffffffffffffffffffffffffffffffffff1673ffffffffffffffffffffffffffffffffffffffff1634604051610b599061196b565b60006040518083038185875af1925050503d8060008114610b96576040519150601f19603f3d011682016040523d82523d6000602084013e610b9b565b606091505b5050905080610bdf576040517f08c379a0000000000000000000000000000000000000000000000000000000008152600401610bd6906119cc565b60405180910390fd5b34600160003373ffffffffffffffffffffffffffffffffffffffff1673ffffffffffffffffffffffffffffffffffffffff1681526020019081526020016000206000828254610c2e91906119ec565b925050819055503460026000828254610c4791906119ec565b925050819055507f1bb460ccaaf70fbacfec17a376f8acbd278c1405590ffcc8ebe4b88daf4f64ad3334604051610c7f929190611a20565b60405180910390a1505050565b6000604051905090565b600080fd5b600080fd5b6000819050919050565b610cb381610ca0565b8114610cbe57600080fd5b50565b600081359050610cd081610caa565b92915050565b600060208284031215610cec57610ceb610c96565b5b6000610cfa84828501610cc1565b91505092915050565b600081519050919050565b600082825260208201905092915050565b60005b83811015610d3d578082015181840152602081019050610d22565b60008484015250505050565b6000601f19601f8301169050919050565b6000610d6582610d03565b610d6f8185610d0e565b9350610d7f818560208601610d1f565b610d8881610d49565b840191505092915050565b610d9c81610ca0565b82525050565b60008115159050919050565b610db781610da2565b82525050565b600073ffffffffffffffffffffffffffffffffffffffff82169050919050565b6000610de882610dbd565b9050919050565b610df881610ddd565b82525050565b600060a0820190508181036000830152610e188188610d5a565b9050610e276020830187610d93565b610e346040830186610dae565b610e416060830185610def565b610e4e6080830184610d93565b9695505050505050565b6000610e6382610dbd565b9050919050565b610e7381610e58565b8114610e7e57600080fd5b50565b600081359050610e9081610e6a565b92915050565b600060208284031215610eac57610eab610c96565b5b6000610eba84828501610e81565b91505092915050565b6000602082019050610ed86000830184610d93565b92915050565b600080fd5b600080fd5b7f4e487b7100000000000000000000000000000000000000000000000000000000600052604160045260246000fd5b610f2082610d49565b810181811067ffffffffffffffff82111715610f3f57610f3e610ee8565b5b80604052505050565b6000610f52610c8c565b9050610f5e8282610f17565b919050565b600067ffffffffffffffff821115610f7e57610f7d610ee8565b5b610f8782610d49565b9050602081019050919050565b82818337600083830152505050565b6000610fb6610fb184610f63565b610f48565b905082815260208101848484011115610fd257610fd1610ee3565b5b610fdd848285610f94565b509392505050565b600082601f830112610ffa57610ff9610ede565b5b813561100a848260208601610fa3565b91505092915050565b61101c81610ddd565b811461102757600080fd5b50565b60008135905061103981611013565b92915050565b6000806000806080858703121561105957611058610c96565b5b600085013567ffffffffffffffff81111561107757611076610c9b565b5b61108387828801610fe5565b945050602061109487828801610cc1565b93505060406110a58782880161102a565b92505060606110b687828801610cc1565b91505092959194509250565b6110cb81610e58565b82525050565b60006020820190506110e660008301846110c2565b92915050565b7f4e487b7100000000000000000000000000000000000000000000000000000000600052602260045260246000fd5b6000600282049050600182168061113357607f821691505b602082108103611146576111456110ec565b5b50919050565b7f4f6e6c79206f776e65722063616e2063616c6c20746869732066756e6374696f60008201527f6e00000000000000000000000000000000000000000000000000000000000000602082015250565b60006111a8602183610d0e565b91506111b38261114c565b604082019050919050565b600060208201905081810360008301526111d78161119b565b9050919050565b7f4e487b7100000000000000000000000000000000000000000000000000000000600052603260045260246000fd5b7f50726f706f73616c20616c726561647920657865637574656400000000000000600082015250565b6000611243601983610d0e565b915061124e8261120d565b602082019050919050565b6000602082019050818103600083015261127281611236565b9050919050565b7f496e73756666696369656e7420636f6e74726163742062616c616e6365000000600082015250565b60006112af601d83610d0e565b91506112ba82611279565b602082019050919050565b600060208201905081810360008301526112de816112a2565b9050919050565b7f50726f706f73616c20657865637574696f6e2074696d6520686173206e6f742060008201527f6265656e20726561636865640000000000000000000000000000000000000000602082015250565b6000611341602c83610d0e565b915061134c826112e5565b604082019050919050565b6000602082019050818103600083015261137081611334565b9050919050565b7f5265717565737465642066756e64732065786365656420746f74616c20636f6e60008201527f747269627574696f6e7300000000000000000000000000000000000000000000602082015250565b60006113d3602a83610d0e565b91506113de82611377565b604082019050919050565b60006020820190508181036000830152611402816113c6565b9050919050565b7f4e487b7100000000000000000000000000000000000000000000000000000000600052601160045260246000fd5b600061144382610ca0565b915061144e83610ca0565b925082820390508181111561146657611465611409565b5b92915050565b6000819050919050565b600061149161148c61148784610dbd565b61146c565b610dbd565b9050919050565b60006114a382611476565b9050919050565b60006114b582611498565b9050919050565b6114c5816114aa565b82525050565b60006060820190506114e06000830186610d93565b6114ed60208301856114bc565b6114fa6040830184610d93565b949350505050565b7f4e6f2066756e647320746f207769746864726177000000000000000000000000600082015250565b6000611538601483610d0e565b915061154382611502565b602082019050919050565b600060208201905081810360008301526115678161152b565b9050919050565b60008190508160005260206000209050919050565b60006020601f8301049050919050565b600082821b905092915050565b6000600883026115d07fffffffffffffffffffffffffffffffffffffffffffffffffffffffffffffffff82611593565b6115da8683611593565b95508019841693508086168417925050509392505050565b600061160d61160861160384610ca0565b61146c565b610ca0565b9050919050565b6000819050919050565b611627836115f2565b61163b61163382611614565b8484546115a0565b825550505050565b600090565b611650611643565b61165b81848461161e565b505050565b5b8181101561167f57611674600082611648565b600181019050611661565b5050565b601f8211156116c4576116958161156e565b61169e84611583565b810160208510156116ad578190505b6116c16116b985611583565b830182611660565b50505b505050565b600082821c905092915050565b60006116e7600019846008026116c9565b1980831691505092915050565b600061170083836116d6565b9150826002028217905092915050565b61171982610d03565b67ffffffffffffffff81111561173257611731610ee8565b5b61173c825461111b565b611747828285611683565b600060209050601f83116001811461177a5760008415611768578287015190505b61177285826116f4565b8655506117da565b601f1984166117888661156e565b60005b828110156117b05784890151825560018201915060208501945060208101905061178b565b868310156117cd57848901516117c9601f8916826116d6565b8355505b6001600288020188555050505b505050505050565b600060a0820190506117f76000830188610d93565b81810360208301526118098187610d5a565b90506118186040830186610d93565b61182560608301856114bc565b6118326080830184610d93565b9695505050505050565b7f436f6e747269627574696f6e206d75737420626520677265617465722074686160008201527f6e20300000000000000000000000000000000000000000000000000000000000602082015250565b6000611898602383610d0e565b91506118a38261183c565b604082019050919050565b600060208201905081810360008301526118c78161188b565b9050919050565b7f496e76616c69642070726f706f73616c20494400000000000000000000000000600082015250565b6000611904601383610d0e565b915061190f826118ce565b602082019050919050565b60006020820190508181036000830152611933816118f7565b9050919050565b600081905092915050565b50565b600061195560008361193a565b915061196082611945565b600082019050919050565b600061197682611948565b9150819050919050565b7f4661696c656420746f2073656e64204574686572000000000000000000000000600082015250565b60006119b6601483610d0e565b91506119c182611980565b602082019050919050565b600060208201905081810360008301526119e5816119a9565b9050919050565b60006119f782610ca0565b9150611a0283610ca0565b9250828201905080821115611a1a57611a19611409565b5b92915050565b6000604082019050611a3560008301856110c2565b611a426020830184610d93565b939250505056fea2646970667358221220ed29ddf2c10793a97d92233a6614d53fec2876c0821359f8823b807a696631d864736f6c634300081c0033",
  "linkReferences": {},
  "deployedLinkReferences": {}
}