{
  "_format": "hh-sol-artifact-1",
  "contractName": "Crowdfunding",
  "sourceName": "contracts/Crowdfunding.sol",
  "abi": [
    {
      "inputs": [],
      "stateMutability": "nonpayable",
      "type": "constructor"
    },
    {
      "anonymous": false,
      "inputs": [
        {
          "indexed": false,
          "internalType": "address",
          "name": "contributor",
          "type": "address"
        },
        {
          "indexed": false,
          "internalType": "uint256",
          "name": "amount",
          "type": "uint256"
        }
      ],
      "name": "ContributionReceived",
      "type": "event"
    },
    {
      "anonymous": false,
      "inputs": [
        {
          "indexed": false,
          "internalType": "uint256",
          "name": "proposalId",
          "type": "uint256"
        },
        {
          "indexed": false,
          "internalType": "address",
          "name": "projectContract",
          "type": "address"
        },
        {
          "indexed": false,
          "internalType": "uint256",
          "name": "amount",
          "type": "uint256"
        }
      ],
      "name": "FundsReleased",
      "type": "event"
    },
    {
      "anonymous": false,
      "inputs": [
        {
          "indexed": false,
          "internalType": "uint256",
          "name": "proposalId",
          "type": "uint256"
        },
        {
          "indexed": false,
          "internalType": "string",
          "name": "description",
          "type": "string"
        },
        {
          "indexed": false,
          "internalType": "uint256",
          "name": "fundRequest",
          "type": "uint256"
        },
        {
          "indexed": false,
          "internalType": "address",
          "name": "projectContract",
          "type": "address"
        },
        {
          "indexed": false,
          "internalType": "uint256",
          "name": "executionTime",
          "type": "uint256"
        }
      ],
      "name": "ProposalCreated",
      "type": "event"
    },
    {
      "anonymous": false,
      "inputs": [
        {
          "indexed": true,
          "internalType": "address",
          "name": "user",
          "type": "address"
        },
        {
          "indexed": false,
          "internalType": "uint256",
          "name": "amount",
          "type": "uint256"
        }
      ],
      "name": "Withdrawal",
      "type": "event"
    },
    {
      "inputs": [
        {
          "internalType": "address",
          "name": "",
          "type": "address"
        }
      ],
      "name": "balances",
      "outputs": [
        {
          "internalType": "uint256",
          "name": "",
          "type": "uint256"
        }
      ],
      "stateMutability": "view",
      "type": "function"
    },
    {
      "inputs": [],
      "name": "contribute",
      "outputs": [],
      "stateMutability": "payable",
      "type": "function"
    },
    {
      "inputs": [
        {
          "internalType": "address",
          "name": "",
          "type": "address"
        }
      ],
      "name": "contributions",
      "outputs": [
        {
          "internalType": "uint256",
          "name": "",
          "type": "uint256"
        }
      ],
      "stateMutability": "view",
      "type": "function"
    },
    {
      "inputs": [
        {
          "internalType": "string",
          "name": "_description",
          "type": "string"
        },
        {
          "internalType": "uint256",
          "name": "_fundRequest",
          "type": "uint256"
        },
        {
          "internalType": "address payable",
          "name": "_projectContract",
          "type": "address"
        },
        {
          "internalType": "uint256",
          "name": "_executionTime",
          "type": "uint256"
        }
      ],
      "name": "createProposal",
      "outputs": [],
      "stateMutability": "nonpayable",
      "type": "function"
    },
    {
      "inputs": [
        {
          "internalType": "uint256",
          "name": "_proposalId",
          "type": "uint256"
        }
      ],
      "name": "executeProposal",
      "outputs": [],
      "stateMutability": "nonpayable",
      "type": "function"
    },
    {
      "inputs": [],
      "name": "getProposalsCount",
      "outputs": [
        {
          "internalType": "uint256",
          "name": "",
          "type": "uint256"
        }
      ],
      "stateMutability": "view",
      "type": "function"
    },
    {
      "inputs": [],
      "name": "owner",
      "outputs": [
        {
          "internalType": "address",
          "name": "",
          "type": "address"
        }
      ],
      "stateMutability": "view",
      "type": "function"
    },
    {
      "inputs": [
        {
          "internalType": "uint256",
          "name": "",
          "type": "uint256"
        }
      ],
      "name": "proposals",
      "outputs": [
        {
          "internalType": "string",
          "name": "description",
          "type": "string"
        },
        {
          "internalType": "uint256",
          "name": "fundRequest",
          "type": "uint256"
        },
        {
          "internalType": "bool",
          "name": "executed",
          "type": "bool"
        },
        {
          "internalType": "address payable",
          "name": "projectContract",
          "type": "address"
        },
        {
          "internalType": "uint256",
          "name": "executionTime",
          "type": "uint256"
        }
      ],
      "stateMutability": "view",
      "type": "function"
    },
    {
      "inputs": [],
      "name": "totalContributions",
      "outputs": [
        {
          "internalType": "uint256",
          "name": "",
          "type": "uint256"
        }
      ],
      "stateMutability": "view",
      "type": "function"
    },
    {
      "inputs": [],
      "name": "withdraw",
      "outputs": [],
      "stateMutability": "nonpayable",
      "type": "function"
    }
  ],
  "bytecode": "0x6080604052348015600f57600080fd5b50336000806101000a81548173ffffffffffffffffffffffffffffffffffffffff021916908373ffffffffffffffffffffffffffffffffffffffff1602179055506117f28061005f6000396000f3fe6080604052600436106100915760003560e01c806342e94c901161005957806342e94c901461017f57806370a8585d146101bc5780638da5cb5b146101e557806398e527d314610210578063d7bb99ba1461023b57610091565b8063013cf08b146100965780630d61b519146100d757806327e235e31461010057806337c089231461013d5780633ccfd60b14610168575b600080fd5b3480156100a257600080fd5b506100bd60048036038101906100b89190610b67565b610245565b6040516100ce959493929190610c8f565b60405180910390f35b3480156100e357600080fd5b506100fe60048036038101906100f99190610b67565b610340565b005b34801561010c57600080fd5b5061012760048036038101906101229190610d27565b61062d565b6040516101349190610d54565b60405180910390f35b34801561014957600080fd5b50610152610645565b60405161015f9190610d54565b60405180910390f35b34801561017457600080fd5b5061017d61064b565b005b34801561018b57600080fd5b506101a660048036038101906101a19190610d27565b6107af565b6040516101b39190610d54565b60405180910390f35b3480156101c857600080fd5b506101e360048036038101906101de9190610ed0565b6107c7565b005b3480156101f157600080fd5b506101fa6109a9565b6040516102079190610f62565b60405180910390f35b34801561021c57600080fd5b506102256109cd565b6040516102329190610d54565b60405180910390f35b6102436109da565b005b6003818154811061025557600080fd5b906000526020600020906004020160009150905080600001805461027890610fac565b80601f01602080910402602001604051908101604052809291908181526020018280546102a490610fac565b80156102f15780601f106102c6576101008083540402835291602001916102f1565b820191906000526020600020905b8154815290600101906020018083116102d457829003601f168201915b5050505050908060010154908060020160009054906101000a900460ff16908060020160019054906101000a900473ffffffffffffffffffffffffffffffffffffffff16908060030154905085565b60008054906101000a900473ffffffffffffffffffffffffffffffffffffffff1673ffffffffffffffffffffffffffffffffffffffff163373ffffffffffffffffffffffffffffffffffffffff16146103ce576040517f08c379a00000000000000000000000000000000000000000000000000000000081526004016103c59061104f565b60405180910390fd5b6000600382815481106103e4576103e361106f565b5b906000526020600020906004020190508060020160009054906101000a900460ff1615610446576040517f08c379a000000000000000000000000000000000000000000000000000000000815260040161043d906110ea565b60405180910390fd5b806001015447101561048d576040517f08c379a000000000000000000000000000000000000000000000000000000000815260040161048490611156565b60405180910390fd5b80600301544210156104d4576040517f08c379a00000000000000000000000000000000000000000000000000000000081526004016104cb906111e8565b60405180910390fd5b8060010154600254101561051d576040517f08c379a00000000000000000000000000000000000000000000000000000000081526004016105149061127a565b60405180910390fd5b60018160020160006101000a81548160ff02191690831515021790555080600101546002600082825461055091906112c9565b925050819055508060020160019054906101000a900473ffffffffffffffffffffffffffffffffffffffff1673ffffffffffffffffffffffffffffffffffffffff166108fc82600101549081150290604051600060405180830381858888f193505050501580156105c5573d6000803e3d6000fd5b507f6e3c6096795c8298a218b2cfb8bde42726ff7c9a3d27b4d3ba41ab7f74feb5fb828260020160019054906101000a900473ffffffffffffffffffffffffffffffffffffffff1683600101546040516106219392919061135c565b60405180910390a15050565b60046020528060005260406000206000915090505481565b60025481565b6000600460003373ffffffffffffffffffffffffffffffffffffffff1673ffffffffffffffffffffffffffffffffffffffff168152602001908152602001600020549050600081116106d2576040517f08c379a00000000000000000000000000000000000000000000000000000000081526004016106c9906113df565b60405180910390fd5b6000600460003373ffffffffffffffffffffffffffffffffffffffff1673ffffffffffffffffffffffffffffffffffffffff168152602001908152602001600020819055503373ffffffffffffffffffffffffffffffffffffffff166108fc829081150290604051600060405180830381858888f1935050505015801561075d573d6000803e3d6000fd5b503373ffffffffffffffffffffffffffffffffffffffff167f7fcf532c15f0a6db0bd6d0e038bea71d30d808c7d98cb3bf7268a95bf5081b65826040516107a49190610d54565b60405180910390a250565b60016020528060005260406000206000915090505481565b60008054906101000a900473ffffffffffffffffffffffffffffffffffffffff1673ffffffffffffffffffffffffffffffffffffffff163373ffffffffffffffffffffffffffffffffffffffff1614610855576040517f08c379a000000000000000000000000000000000000000000000000000000000815260040161084c9061104f565b60405180910390fd5b60036040518060a001604052808681526020018581526020016000151581526020018473ffffffffffffffffffffffffffffffffffffffff16815260200183815250908060018154018082558091505060019003906000526020600020906004020160009091909190915060008201518160000190816108d591906115a1565b506020820151816001015560408201518160020160006101000a81548160ff02191690831515021790555060608201518160020160016101000a81548173ffffffffffffffffffffffffffffffffffffffff021916908373ffffffffffffffffffffffffffffffffffffffff1602179055506080820151816003015550507f8d35b72fd3f082426bb4cd3801396bf51e9e77a2d5cd5ecec078b485a107b71f600160038054905061098691906112c9565b8585858560405161099b959493929190611673565b60405180910390a150505050565b60008054906101000a900473ffffffffffffffffffffffffffffffffffffffff1681565b6000600380549050905090565b60003411610a1d576040517f08c379a0000000000000000000000000000000000000000000000000000000008152600401610a149061173f565b60405180910390fd5b34600160003373ffffffffffffffffffffffffffffffffffffffff1673ffffffffffffffffffffffffffffffffffffffff1681526020019081526020016000206000828254610a6c919061175f565b925050819055503460026000828254610a85919061175f565b9250508190555034600460003373ffffffffffffffffffffffffffffffffffffffff1673ffffffffffffffffffffffffffffffffffffffff1681526020019081526020016000206000828254610adb919061175f565b925050819055507f1bb460ccaaf70fbacfec17a376f8acbd278c1405590ffcc8ebe4b88daf4f64ad3334604051610b13929190611793565b60405180910390a1565b6000604051905090565b600080fd5b600080fd5b6000819050919050565b610b4481610b31565b8114610b4f57600080fd5b50565b600081359050610b6181610b3b565b92915050565b600060208284031215610b7d57610b7c610b27565b5b6000610b8b84828501610b52565b91505092915050565b600081519050919050565b600082825260208201905092915050565b60005b83811015610bce578082015181840152602081019050610bb3565b60008484015250505050565b6000601f19601f8301169050919050565b6000610bf682610b94565b610c008185610b9f565b9350610c10818560208601610bb0565b610c1981610bda565b840191505092915050565b610c2d81610b31565b82525050565b60008115159050919050565b610c4881610c33565b82525050565b600073ffffffffffffffffffffffffffffffffffffffff82169050919050565b6000610c7982610c4e565b9050919050565b610c8981610c6e565b82525050565b600060a0820190508181036000830152610ca98188610beb565b9050610cb86020830187610c24565b610cc56040830186610c3f565b610cd26060830185610c80565b610cdf6080830184610c24565b9695505050505050565b6000610cf482610c4e565b9050919050565b610d0481610ce9565b8114610d0f57600080fd5b50565b600081359050610d2181610cfb565b92915050565b600060208284031215610d3d57610d3c610b27565b5b6000610d4b84828501610d12565b91505092915050565b6000602082019050610d696000830184610c24565b92915050565b600080fd5b600080fd5b7f4e487b7100000000000000000000000000000000000000000000000000000000600052604160045260246000fd5b610db182610bda565b810181811067ffffffffffffffff82111715610dd057610dcf610d79565b5b80604052505050565b6000610de3610b1d565b9050610def8282610da8565b919050565b600067ffffffffffffffff821115610e0f57610e0e610d79565b5b610e1882610bda565b9050602081019050919050565b82818337600083830152505050565b6000610e47610e4284610df4565b610dd9565b905082815260208101848484011115610e6357610e62610d74565b5b610e6e848285610e25565b509392505050565b600082601f830112610e8b57610e8a610d6f565b5b8135610e9b848260208601610e34565b91505092915050565b610ead81610c6e565b8114610eb857600080fd5b50565b600081359050610eca81610ea4565b92915050565b60008060008060808587031215610eea57610ee9610b27565b5b600085013567ffffffffffffffff811115610f0857610f07610b2c565b5b610f1487828801610e76565b9450506020610f2587828801610b52565b9350506040610f3687828801610ebb565b9250506060610f4787828801610b52565b91505092959194509250565b610f5c81610ce9565b82525050565b6000602082019050610f776000830184610f53565b92915050565b7f4e487b7100000000000000000000000000000000000000000000000000000000600052602260045260246000fd5b60006002820490506001821680610fc457607f821691505b602082108103610fd757610fd6610f7d565b5b50919050565b7f4f6e6c79206f776e65722063616e2063616c6c20746869732066756e6374696f60008201527f6e00000000000000000000000000000000000000000000000000000000000000602082015250565b6000611039602183610b9f565b915061104482610fdd565b604082019050919050565b600060208201905081810360008301526110688161102c565b9050919050565b7f4e487b7100000000000000000000000000000000000000000000000000000000600052603260045260246000fd5b7f50726f706f73616c20616c726561647920657865637574656400000000000000600082015250565b60006110d4601983610b9f565b91506110df8261109e565b602082019050919050565b60006020820190508181036000830152611103816110c7565b9050919050565b7f496e73756666696369656e7420636f6e74726163742062616c616e6365000000600082015250565b6000611140601d83610b9f565b915061114b8261110a565b602082019050919050565b6000602082019050818103600083015261116f81611133565b9050919050565b7f50726f706f73616c20657865637574696f6e2074696d6520686173206e6f742060008201527f6265656e20726561636865640000000000000000000000000000000000000000602082015250565b60006111d2602c83610b9f565b91506111dd82611176565b604082019050919050565b60006020820190508181036000830152611201816111c5565b9050919050565b7f5265717565737465642066756e64732065786365656420746f74616c20636f6e60008201527f747269627574696f6e7300000000000000000000000000000000000000000000602082015250565b6000611264602a83610b9f565b915061126f82611208565b604082019050919050565b6000602082019050818103600083015261129381611257565b9050919050565b7f4e487b7100000000000000000000000000000000000000000000000000000000600052601160045260246000fd5b60006112d482610b31565b91506112df83610b31565b92508282039050818111156112f7576112f661129a565b5b92915050565b6000819050919050565b600061132261131d61131884610c4e565b6112fd565b610c4e565b9050919050565b600061133482611307565b9050919050565b600061134682611329565b9050919050565b6113568161133b565b82525050565b60006060820190506113716000830186610c24565b61137e602083018561134d565b61138b6040830184610c24565b949350505050565b7f4e6f2066756e647320746f207769746864726177000000000000000000000000600082015250565b60006113c9601483610b9f565b91506113d482611393565b602082019050919050565b600060208201905081810360008301526113f8816113bc565b9050919050565b60008190508160005260206000209050919050565b60006020601f8301049050919050565b600082821b905092915050565b6000600883026114617fffffffffffffffffffffffffffffffffffffffffffffffffffffffffffffffff82611424565b61146b8683611424565b95508019841693508086168417925050509392505050565b600061149e61149961149484610b31565b6112fd565b610b31565b9050919050565b6000819050919050565b6114b883611483565b6114cc6114c4826114a5565b848454611431565b825550505050565b600090565b6114e16114d4565b6114ec8184846114af565b505050565b5b81811015611510576115056000826114d9565b6001810190506114f2565b5050565b601f82111561155557611526816113ff565b61152f84611414565b8101602085101561153e578190505b61155261154a85611414565b8301826114f1565b50505b505050565b600082821c905092915050565b60006115786000198460080261155a565b1980831691505092915050565b60006115918383611567565b9150826002028217905092915050565b6115aa82610b94565b67ffffffffffffffff8111156115c3576115c2610d79565b5b6115cd8254610fac565b6115d8828285611514565b600060209050601f83116001811461160b57600084156115f9578287015190505b6116038582611585565b86555061166b565b601f198416611619866113ff565b60005b828110156116415784890151825560018201915060208501945060208101905061161c565b8683101561165e578489015161165a601f891682611567565b8355505b6001600288020188555050505b505050505050565b600060a0820190506116886000830188610c24565b818103602083015261169a8187610beb565b90506116a96040830186610c24565b6116b6606083018561134d565b6116c36080830184610c24565b9695505050505050565b7f436f6e747269627574696f6e206d75737420626520677265617465722074686160008201527f6e20300000000000000000000000000000000000000000000000000000000000602082015250565b6000611729602383610b9f565b9150611734826116cd565b604082019050919050565b600060208201905081810360008301526117588161171c565b9050919050565b600061176a82610b31565b915061177583610b31565b925082820190508082111561178d5761178c61129a565b5b92915050565b60006040820190506117a86000830185610f53565b6117b56020830184610c24565b939250505056fea2646970667358221220406b765ad71f257f16a59cd809da68cc8200a1e8b8c39ea7df90d6a070b90e2164736f6c634300081c0033",
  "linkReferences": {},
  "deployedLinkReferences": {}
}