{
  "_format": "hh-sol-artifact-1",
  "contractName": "Crowdfunding",
  "sourceName": "contracts/Crowdfunding.sol",
  "abi": [
    {
      "inputs": [],
      "stateMutability": "nonpayable",
      "type": "constructor"
    },
    {
      "anonymous": false,
      "inputs": [
        {
          "indexed": false,
          "internalType": "address",
          "name": "contributor",
          "type": "address"
        },
        {
          "indexed": false,
          "internalType": "uint256",
          "name": "amount",
          "type": "uint256"
        },
        {
          "indexed": false,
          "internalType": "address",
          "name": "project",
          "type": "address"
        }
      ],
      "name": "ContributionReceived",
      "type": "event"
    },
    {
      "anonymous": false,
      "inputs": [
        {
          "indexed": false,
          "internalType": "uint256",
          "name": "proposalId",
          "type": "uint256"
        },
        {
          "indexed": false,
          "internalType": "address",
          "name": "projectContract",
          "type": "address"
        },
        {
          "indexed": false,
          "internalType": "uint256",
          "name": "amount",
          "type": "uint256"
        }
      ],
      "name": "FundsReleased",
      "type": "event"
    },
    {
      "anonymous": false,
      "inputs": [
        {
          "indexed": false,
          "internalType": "uint256",
          "name": "proposalId",
          "type": "uint256"
        },
        {
          "indexed": false,
          "internalType": "string",
          "name": "name",
          "type": "string"
        },
        {
          "indexed": false,
          "internalType": "string",
          "name": "description",
          "type": "string"
        },
        {
          "indexed": false,
          "internalType": "uint256",
          "name": "fundRequest",
          "type": "uint256"
        },
        {
          "indexed": false,
          "internalType": "address",
          "name": "projectContract",
          "type": "address"
        },
        {
          "indexed": false,
          "internalType": "uint256",
          "name": "executionTime",
          "type": "uint256"
        }
      ],
      "name": "ProposalCreated",
      "type": "event"
    },
    {
      "anonymous": false,
      "inputs": [
        {
          "indexed": false,
          "internalType": "uint256",
          "name": "proposalId",
          "type": "uint256"
        }
      ],
      "name": "ProposalExecuted",
      "type": "event"
    },
    {
      "inputs": [
        {
          "internalType": "uint256",
          "name": "proposalId",
          "type": "uint256"
        }
      ],
      "name": "contribute",
      "outputs": [],
      "stateMutability": "payable",
      "type": "function"
    },
    {
      "inputs": [
        {
          "internalType": "address",
          "name": "",
          "type": "address"
        }
      ],
      "name": "contributions",
      "outputs": [
        {
          "internalType": "uint256",
          "name": "",
          "type": "uint256"
        }
      ],
      "stateMutability": "view",
      "type": "function"
    },
    {
      "inputs": [
        {
          "internalType": "string",
          "name": "_name",
          "type": "string"
        },
        {
          "internalType": "string",
          "name": "_description",
          "type": "string"
        },
        {
          "internalType": "uint256",
          "name": "_fundRequest",
          "type": "uint256"
        },
        {
          "internalType": "uint256",
          "name": "_executionTime",
          "type": "uint256"
        }
      ],
      "name": "createProposal",
      "outputs": [],
      "stateMutability": "nonpayable",
      "type": "function"
    },
    {
      "inputs": [],
      "name": "getProposalsCount",
      "outputs": [
        {
          "internalType": "uint256",
          "name": "",
          "type": "uint256"
        }
      ],
      "stateMutability": "view",
      "type": "function"
    },
    {
      "inputs": [],
      "name": "owner",
      "outputs": [
        {
          "internalType": "address",
          "name": "",
          "type": "address"
        }
      ],
      "stateMutability": "view",
      "type": "function"
    },
    {
      "inputs": [
        {
          "internalType": "uint256",
          "name": "",
          "type": "uint256"
        }
      ],
      "name": "projectAddresses",
      "outputs": [
        {
          "internalType": "address",
          "name": "",
          "type": "address"
        }
      ],
      "stateMutability": "view",
      "type": "function"
    },
    {
      "inputs": [
        {
          "internalType": "uint256",
          "name": "",
          "type": "uint256"
        }
      ],
      "name": "proposals",
      "outputs": [
        {
          "internalType": "string",
          "name": "name",
          "type": "string"
        },
        {
          "internalType": "string",
          "name": "description",
          "type": "string"
        },
        {
          "internalType": "uint256",
          "name": "fundRequest",
          "type": "uint256"
        },
        {
          "internalType": "uint256",
          "name": "totalFundsRaised",
          "type": "uint256"
        },
        {
          "internalType": "bool",
          "name": "executed",
          "type": "bool"
        },
        {
          "internalType": "address",
          "name": "projectContract",
          "type": "address"
        },
        {
          "internalType": "uint256",
          "name": "executionTime",
          "type": "uint256"
        }
      ],
      "stateMutability": "view",
      "type": "function"
    }
  ],
  "bytecode": "0x6080604052348015600f57600080fd5b50336000806101000a81548173ffffffffffffffffffffffffffffffffffffffff021916908373ffffffffffffffffffffffffffffffffffffffff16021790555061242c8061005f6000396000f3fe6080604052600436106100705760003560e01c80638da5cb5b1161004e5780638da5cb5b1461011e57806398e527d314610149578063c1cbbca714610174578063cc13fd3b1461019057610070565b8063013cf08b1461007557806342e94c90146100b85780636b5e1766146100f5575b600080fd5b34801561008157600080fd5b5061009c6004803603810190610097919061093b565b6101cd565b6040516100af9796959493929190610a63565b60405180910390f35b3480156100c457600080fd5b506100df60048036038101906100da9190610b0c565b61035c565b6040516100ec9190610b39565b60405180910390f35b34801561010157600080fd5b5061011c60048036038101906101179190610c89565b610374565b005b34801561012a57600080fd5b50610133610593565b6040516101409190610d28565b60405180910390f35b34801561015557600080fd5b5061015e6105b7565b60405161016b9190610b39565b60405180910390f35b61018e6004803603810190610189919061093b565b6105c4565b005b34801561019c57600080fd5b506101b760048036038101906101b2919061093b565b6108b1565b6040516101c49190610d28565b60405180910390f35b600181815481106101dd57600080fd5b906000526020600020906006020160009150905080600001805461020090610d72565b80601f016020809104026020016040519081016040528092919081815260200182805461022c90610d72565b80156102795780601f1061024e57610100808354040283529160200191610279565b820191906000526020600020905b81548152906001019060200180831161025c57829003601f168201915b50505050509080600101805461028e90610d72565b80601f01602080910402602001604051908101604052809291908181526020018280546102ba90610d72565b80156103075780601f106102dc57610100808354040283529160200191610307565b820191906000526020600020905b8154815290600101906020018083116102ea57829003601f168201915b5050505050908060020154908060030154908060040160009054906101000a900460ff16908060040160019054906101000a900473ffffffffffffffffffffffffffffffffffffffff16908060050154905087565b60026020528060005260406000206000915090505481565b600084848433604051610386906108e4565b6103939493929190610da3565b604051809103906000f0801580156103af573d6000803e3d6000fd5b509050600081905060016040518060e00160405280888152602001878152602001868152602001600081526020016000151581526020018373ffffffffffffffffffffffffffffffffffffffff16815260200185815250908060018154018082558091505060019003906000526020600020906006020160009091909190915060008201518160000190816104449190610fa2565b50602082015181600101908161045a9190610fa2565b50604082015181600201556060820151816003015560808201518160040160006101000a81548160ff02191690831515021790555060a08201518160040160016101000a81548173ffffffffffffffffffffffffffffffffffffffff021916908373ffffffffffffffffffffffffffffffffffffffff16021790555060c0820151816005015550506000600180805490506104f591906110a3565b9050816003600083815260200190815260200160002060006101000a81548173ffffffffffffffffffffffffffffffffffffffff021916908373ffffffffffffffffffffffffffffffffffffffff1602179055507f76292bb7e2503e8e04e1424e695ff7505f896fb50b910f71a30a90c3d30a3802818888888689604051610582969594939291906110d7565b60405180910390a150505050505050565b60008054906101000a900473ffffffffffffffffffffffffffffffffffffffff1681565b6000600180549050905090565b60003411610607576040517f08c379a00000000000000000000000000000000000000000000000000000000081526004016105fe906111b8565b60405180910390fd5b600180549050811061064e576040517f08c379a000000000000000000000000000000000000000000000000000000000815260040161064590611224565b60405180910390fd5b60006001828154811061066457610663611244565b5b906000526020600020906006020190508060040160009054906101000a900460ff16156106c6576040517f08c379a00000000000000000000000000000000000000000000000000000000081526004016106bd906112bf565b60405180910390fd5b348160030160008282546106da91906112df565b9250508190555080600201548160030154106107455760018160040160006101000a81548160ff0219169083151502179055507f712ae1383f79ac853f8d882153778e0260ef8f03b504e2866e0593e04d2b291f8260405161073c9190610b39565b60405180910390a15b60008160040160019054906101000a900473ffffffffffffffffffffffffffffffffffffffff16905060008173ffffffffffffffffffffffffffffffffffffffff163460405161079490611344565b60006040518083038185875af1925050503d80600081146107d1576040519150601f19603f3d011682016040523d82523d6000602084013e6107d6565b606091505b505090508061081a576040517f08c379a0000000000000000000000000000000000000000000000000000000008152600401610811906113a5565b60405180910390fd5b34600260003373ffffffffffffffffffffffffffffffffffffffff1673ffffffffffffffffffffffffffffffffffffffff168152602001908152602001600020600082825461086991906112df565b925050819055507f0829c5c9dc5d14e41b11cfca0f01f76eba69b648ddcf9f84afba16ba8a76bf1c3334846040516108a39392919061141a565b60405180910390a150505050565b60036020528060005260406000206000915054906101000a900473ffffffffffffffffffffffffffffffffffffffff1681565b610fa58061145283390190565b6000604051905090565b600080fd5b600080fd5b6000819050919050565b61091881610905565b811461092357600080fd5b50565b6000813590506109358161090f565b92915050565b600060208284031215610951576109506108fb565b5b600061095f84828501610926565b91505092915050565b600081519050919050565b600082825260208201905092915050565b60005b838110156109a2578082015181840152602081019050610987565b60008484015250505050565b6000601f19601f8301169050919050565b60006109ca82610968565b6109d48185610973565b93506109e4818560208601610984565b6109ed816109ae565b840191505092915050565b610a0181610905565b82525050565b60008115159050919050565b610a1c81610a07565b82525050565b600073ffffffffffffffffffffffffffffffffffffffff82169050919050565b6000610a4d82610a22565b9050919050565b610a5d81610a42565b82525050565b600060e0820190508181036000830152610a7d818a6109bf565b90508181036020830152610a9181896109bf565b9050610aa060408301886109f8565b610aad60608301876109f8565b610aba6080830186610a13565b610ac760a0830185610a54565b610ad460c08301846109f8565b98975050505050505050565b610ae981610a42565b8114610af457600080fd5b50565b600081359050610b0681610ae0565b92915050565b600060208284031215610b2257610b216108fb565b5b6000610b3084828501610af7565b91505092915050565b6000602082019050610b4e60008301846109f8565b92915050565b600080fd5b600080fd5b7f4e487b7100000000000000000000000000000000000000000000000000000000600052604160045260246000fd5b610b96826109ae565b810181811067ffffffffffffffff82111715610bb557610bb4610b5e565b5b80604052505050565b6000610bc86108f1565b9050610bd48282610b8d565b919050565b600067ffffffffffffffff821115610bf457610bf3610b5e565b5b610bfd826109ae565b9050602081019050919050565b82818337600083830152505050565b6000610c2c610c2784610bd9565b610bbe565b905082815260208101848484011115610c4857610c47610b59565b5b610c53848285610c0a565b509392505050565b600082601f830112610c7057610c6f610b54565b5b8135610c80848260208601610c19565b91505092915050565b60008060008060808587031215610ca357610ca26108fb565b5b600085013567ffffffffffffffff811115610cc157610cc0610900565b5b610ccd87828801610c5b565b945050602085013567ffffffffffffffff811115610cee57610ced610900565b5b610cfa87828801610c5b565b9350506040610d0b87828801610926565b9250506060610d1c87828801610926565b91505092959194509250565b6000602082019050610d3d6000830184610a54565b92915050565b7f4e487b7100000000000000000000000000000000000000000000000000000000600052602260045260246000fd5b60006002820490506001821680610d8a57607f821691505b602082108103610d9d57610d9c610d43565b5b50919050565b60006080820190508181036000830152610dbd81876109bf565b90508181036020830152610dd181866109bf565b9050610de060408301856109f8565b610ded6060830184610a54565b95945050505050565b60008190508160005260206000209050919050565b60006020601f8301049050919050565b600082821b905092915050565b600060088302610e587fffffffffffffffffffffffffffffffffffffffffffffffffffffffffffffffff82610e1b565b610e628683610e1b565b95508019841693508086168417925050509392505050565b6000819050919050565b6000610e9f610e9a610e9584610905565b610e7a565b610905565b9050919050565b6000819050919050565b610eb983610e84565b610ecd610ec582610ea6565b848454610e28565b825550505050565b600090565b610ee2610ed5565b610eed818484610eb0565b505050565b5b81811015610f1157610f06600082610eda565b600181019050610ef3565b5050565b601f821115610f5657610f2781610df6565b610f3084610e0b565b81016020851015610f3f578190505b610f53610f4b85610e0b565b830182610ef2565b50505b505050565b600082821c905092915050565b6000610f7960001984600802610f5b565b1980831691505092915050565b6000610f928383610f68565b9150826002028217905092915050565b610fab82610968565b67ffffffffffffffff811115610fc457610fc3610b5e565b5b610fce8254610d72565b610fd9828285610f15565b600060209050601f83116001811461100c5760008415610ffa578287015190505b6110048582610f86565b86555061106c565b601f19841661101a86610df6565b60005b828110156110425784890151825560018201915060208501945060208101905061101d565b8683101561105f578489015161105b601f891682610f68565b8355505b6001600288020188555050505b505050505050565b7f4e487b7100000000000000000000000000000000000000000000000000000000600052601160045260246000fd5b60006110ae82610905565b91506110b983610905565b92508282039050818111156110d1576110d0611074565b5b92915050565b600060c0820190506110ec60008301896109f8565b81810360208301526110fe81886109bf565b9050818103604083015261111281876109bf565b905061112160608301866109f8565b61112e6080830185610a54565b61113b60a08301846109f8565b979650505050505050565b7f436f6e747269627574696f6e206d75737420626520677265617465722074686160008201527f6e20300000000000000000000000000000000000000000000000000000000000602082015250565b60006111a2602383610973565b91506111ad82611146565b604082019050919050565b600060208201905081810360008301526111d181611195565b9050919050565b7f496e76616c69642070726f706f73616c20494400000000000000000000000000600082015250565b600061120e601383610973565b9150611219826111d8565b602082019050919050565b6000602082019050818103600083015261123d81611201565b9050919050565b7f4e487b7100000000000000000000000000000000000000000000000000000000600052603260045260246000fd5b7f50726f706f73616c20616c726561647920657865637574656400000000000000600082015250565b60006112a9601983610973565b91506112b482611273565b602082019050919050565b600060208201905081810360008301526112d88161129c565b9050919050565b60006112ea82610905565b91506112f583610905565b925082820190508082111561130d5761130c611074565b5b92915050565b600081905092915050565b50565b600061132e600083611313565b91506113398261131e565b600082019050919050565b600061134f82611321565b9150819050919050565b7f4661696c656420746f2073656e64204574686572000000000000000000000000600082015250565b600061138f601483610973565b915061139a82611359565b602082019050919050565b600060208201905081810360008301526113be81611382565b9050919050565b60006113e06113db6113d684610a22565b610e7a565b610a22565b9050919050565b60006113f2826113c5565b9050919050565b6000611404826113e7565b9050919050565b611414816113f9565b82525050565b600060608201905061142f6000830186610a54565b61143c60208301856109f8565b611449604083018461140b565b94935050505056fe608060405234801561001057600080fd5b50604051610fa5380380610fa5833981810160405281019061003291906102cf565b83600090816100419190610585565b5082600190816100519190610585565b508160038190555080600260006101000a81548173ffffffffffffffffffffffffffffffffffffffff021916908373ffffffffffffffffffffffffffffffffffffffff16021790555060006004819055506000600560006101000a81548160ff02191690831515021790555050505050610657565b6000604051905090565b600080fd5b600080fd5b600080fd5b600080fd5b6000601f19601f8301169050919050565b7f4e487b7100000000000000000000000000000000000000000000000000000000600052604160045260246000fd5b61012d826100e4565b810181811067ffffffffffffffff8211171561014c5761014b6100f5565b5b80604052505050565b600061015f6100c6565b905061016b8282610124565b919050565b600067ffffffffffffffff82111561018b5761018a6100f5565b5b610194826100e4565b9050602081019050919050565b60005b838110156101bf5780820151818401526020810190506101a4565b60008484015250505050565b60006101de6101d984610170565b610155565b9050828152602081018484840111156101fa576101f96100df565b5b6102058482856101a1565b509392505050565b600082601f830112610222576102216100da565b5b81516102328482602086016101cb565b91505092915050565b6000819050919050565b61024e8161023b565b811461025957600080fd5b50565b60008151905061026b81610245565b92915050565b600073ffffffffffffffffffffffffffffffffffffffff82169050919050565b600061029c82610271565b9050919050565b6102ac81610291565b81146102b757600080fd5b50565b6000815190506102c9816102a3565b92915050565b600080600080608085870312156102e9576102e86100d0565b5b600085015167ffffffffffffffff811115610307576103066100d5565b5b6103138782880161020d565b945050602085015167ffffffffffffffff811115610334576103336100d5565b5b6103408782880161020d565b93505060406103518782880161025c565b9250506060610362878288016102ba565b91505092959194509250565b600081519050919050565b7f4e487b7100000000000000000000000000000000000000000000000000000000600052602260045260246000fd5b600060028204905060018216806103c057607f821691505b6020821081036103d3576103d2610379565b5b50919050565b60008190508160005260206000209050919050565b60006020601f8301049050919050565b600082821b905092915050565b60006008830261043b7fffffffffffffffffffffffffffffffffffffffffffffffffffffffffffffffff826103fe565b61044586836103fe565b95508019841693508086168417925050509392505050565b6000819050919050565b600061048261047d6104788461023b565b61045d565b61023b565b9050919050565b6000819050919050565b61049c83610467565b6104b06104a882610489565b84845461040b565b825550505050565b600090565b6104c56104b8565b6104d0818484610493565b505050565b5b818110156104f4576104e96000826104bd565b6001810190506104d6565b5050565b601f8211156105395761050a816103d9565b610513846103ee565b81016020851015610522578190505b61053661052e856103ee565b8301826104d5565b50505b505050565b600082821c905092915050565b600061055c6000198460080261053e565b1980831691505092915050565b6000610575838361054b565b9150826002028217905092915050565b61058e8261036e565b67ffffffffffffffff8111156105a7576105a66100f5565b5b6105b182546103a8565b6105bc8282856104f8565b600060209050601f8311600181146105ef57600084156105dd578287015190505b6105e78582610569565b86555061064f565b601f1984166105fd866103d9565b60005b8281101561062557848901518255600182019150602085019450602081019050610600565b86831015610642578489015161063e601f89168261054b565b8355505b6001600288020188555050505b505050505050565b61093f806106666000396000f3fe6080604052600436106100745760003560e01c80637a3a0e841161004e5780637a3a0e84146101fa5780638da5cb5b146102255780639d9a7fe914610250578063ab96cc4c1461027b57610174565b806306fdde031461017957806312065fe0146101a45780637284e416146101cf57610174565b3661017457600034116100bc576040517f08c379a00000000000000000000000000000000000000000000000000000000081526004016100b3906105be565b60405180910390fd5b600560009054906101000a900460ff161561010c576040517f08c379a00000000000000000000000000000000000000000000000000000000081526004016101039061062a565b60405180910390fd5b346004600082825461011e9190610683565b925050819055507f8e47b87b0ef542cdfa1659c551d88bad38aa7f452d2bbb349ab7530dfec8be8f3334604051610156929190610707565b60405180910390a160035460045410610172576101716102a6565b5b005b600080fd5b34801561018557600080fd5b5061018e6103d2565b60405161019b91906107af565b60405180910390f35b3480156101b057600080fd5b506101b9610460565b6040516101c691906107d1565b60405180910390f35b3480156101db57600080fd5b506101e4610468565b6040516101f191906107af565b60405180910390f35b34801561020657600080fd5b5061020f6104f6565b60405161021c91906107d1565b60405180910390f35b34801561023157600080fd5b5061023a6104fc565b60405161024791906107ec565b60405180910390f35b34801561025c57600080fd5b50610265610522565b6040516102729190610822565b60405180910390f35b34801561028757600080fd5b50610290610535565b60405161029d91906107d1565b60405180910390f35b60035460045410156102ed576040517f08c379a00000000000000000000000000000000000000000000000000000000081526004016102e490610889565b60405180910390fd5b6001600560006101000a81548160ff021916908315150217905550600260009054906101000a900473ffffffffffffffffffffffffffffffffffffffff1673ffffffffffffffffffffffffffffffffffffffff166108fc6004549081150290604051600060405180830381858888f19350505050158015610372573d6000803e3d6000fd5b507f51da7246fced8d2d4bdbf6b9b38c778c9ed909d312f94398d07fc96bd9f0dfff600260009054906101000a900473ffffffffffffffffffffffffffffffffffffffff166004546040516103c8929190610707565b60405180910390a1565b600080546103df906108d8565b80601f016020809104026020016040519081016040528092919081815260200182805461040b906108d8565b80156104585780601f1061042d57610100808354040283529160200191610458565b820191906000526020600020905b81548152906001019060200180831161043b57829003601f168201915b505050505081565b600047905090565b60018054610475906108d8565b80601f01602080910402602001604051908101604052809291908181526020018280546104a1906108d8565b80156104ee5780601f106104c3576101008083540402835291602001916104ee565b820191906000526020600020905b8154815290600101906020018083116104d157829003601f168201915b505050505081565b60035481565b600260009054906101000a900473ffffffffffffffffffffffffffffffffffffffff1681565b600560009054906101000a900460ff1681565b60045481565b600082825260208201905092915050565b7f436f6e747269627574696f6e206d75737420626520677265617465722074686160008201527f6e20300000000000000000000000000000000000000000000000000000000000602082015250565b60006105a860238361053b565b91506105b38261054c565b604082019050919050565b600060208201905081810360008301526105d78161059b565b9050919050565b7f50726f6a65637420616c726561647920636f6d706c6574656400000000000000600082015250565b600061061460198361053b565b915061061f826105de565b602082019050919050565b6000602082019050818103600083015261064381610607565b9050919050565b6000819050919050565b7f4e487b7100000000000000000000000000000000000000000000000000000000600052601160045260246000fd5b600061068e8261064a565b91506106998361064a565b92508282019050808211156106b1576106b0610654565b5b92915050565b600073ffffffffffffffffffffffffffffffffffffffff82169050919050565b60006106e2826106b7565b9050919050565b6106f2816106d7565b82525050565b6107018161064a565b82525050565b600060408201905061071c60008301856106e9565b61072960208301846106f8565b9392505050565b600081519050919050565b60005b8381101561075957808201518184015260208101905061073e565b60008484015250505050565b6000601f19601f8301169050919050565b600061078182610730565b61078b818561053b565b935061079b81856020860161073b565b6107a481610765565b840191505092915050565b600060208201905081810360008301526107c98184610776565b905092915050565b60006020820190506107e660008301846106f8565b92915050565b600060208201905061080160008301846106e9565b92915050565b60008115159050919050565b61081c81610807565b82525050565b60006020820190506108376000830184610813565b92915050565b7f46756e64696e6720676f616c206e6f7420726561636865640000000000000000600082015250565b600061087360188361053b565b915061087e8261083d565b602082019050919050565b600060208201905081810360008301526108a281610866565b9050919050565b7f4e487b7100000000000000000000000000000000000000000000000000000000600052602260045260246000fd5b600060028204905060018216806108f057607f821691505b602082108103610903576109026108a9565b5b5091905056fea264697066735822122096db79b6066b4813b2b66898ee41dd2059543557fff9144b769e288ca897313264736f6c634300081c0033a264697066735822122072cd5fa375e21cc4ad33ee290fb20a7be1b4e528b8bdb1ea2bfb7cfbf5d2335d64736f6c634300081c0033",
  "linkReferences": {},
  "deployedLinkReferences": {}
}