{
  "_format": "hh-sol-artifact-1",
  "contractName": "Project",
  "sourceName": "contracts/Project.sol",
  "abi": [
    {
      "inputs": [
        {
          "internalType": "string",
          "name": "_name",
          "type": "string"
        },
        {
          "internalType": "string",
          "name": "_description",
          "type": "string"
        },
        {
          "internalType": "uint256",
          "name": "_fundingGoal",
          "type": "uint256"
        },
        {
          "internalType": "address",
          "name": "_owner",
          "type": "address"
        }
      ],
      "stateMutability": "nonpayable",
      "type": "constructor"
    },
    {
      "anonymous": false,
      "inputs": [
        {
          "indexed": false,
          "internalType": "address",
          "name": "contributor",
          "type": "address"
        },
        {
          "indexed": false,
          "internalType": "uint256",
          "name": "amount",
          "type": "uint256"
        }
      ],
      "name": "FundsReceived",
      "type": "event"
    },
    {
      "anonymous": false,
      "inputs": [
        {
          "indexed": false,
          "internalType": "address",
          "name": "projectOwner",
          "type": "address"
        },
        {
          "indexed": false,
          "internalType": "uint256",
          "name": "totalFunds",
          "type": "uint256"
        }
      ],
      "name": "ProjectCompleted",
      "type": "event"
    },
    {
      "inputs": [],
      "name": "completed",
      "outputs": [
        {
          "internalType": "bool",
          "name": "",
          "type": "bool"
        }
      ],
      "stateMutability": "view",
      "type": "function"
    },
    {
      "inputs": [],
      "name": "description",
      "outputs": [
        {
          "internalType": "string",
          "name": "",
          "type": "string"
        }
      ],
      "stateMutability": "view",
      "type": "function"
    },
    {
      "inputs": [],
      "name": "fundingGoal",
      "outputs": [
        {
          "internalType": "uint256",
          "name": "",
          "type": "uint256"
        }
      ],
      "stateMutability": "view",
      "type": "function"
    },
    {
      "inputs": [],
      "name": "name",
      "outputs": [
        {
          "internalType": "string",
          "name": "",
          "type": "string"
        }
      ],
      "stateMutability": "view",
      "type": "function"
    },
    {
      "inputs": [],
      "name": "owner",
      "outputs": [
        {
          "internalType": "address",
          "name": "",
          "type": "address"
        }
      ],
      "stateMutability": "view",
      "type": "function"
    },
    {
      "inputs": [],
      "name": "receiveFunds",
      "outputs": [],
      "stateMutability": "payable",
      "type": "function"
    },
    {
      "inputs": [],
      "name": "receivedFunds",
      "outputs": [
        {
          "internalType": "uint256",
          "name": "",
          "type": "uint256"
        }
      ],
      "stateMutability": "view",
      "type": "function"
    }
  ],
  "bytecode": "0x608060405234801561001057600080fd5b50604051610f72380380610f72833981810160405281019061003291906102cf565b83600090816100419190610585565b5082600190816100519190610585565b508160038190555080600260006101000a81548173ffffffffffffffffffffffffffffffffffffffff021916908373ffffffffffffffffffffffffffffffffffffffff16021790555060006004819055506000600560006101000a81548160ff02191690831515021790555050505050610657565b6000604051905090565b600080fd5b600080fd5b600080fd5b600080fd5b6000601f19601f8301169050919050565b7f4e487b7100000000000000000000000000000000000000000000000000000000600052604160045260246000fd5b61012d826100e4565b810181811067ffffffffffffffff8211171561014c5761014b6100f5565b5b80604052505050565b600061015f6100c6565b905061016b8282610124565b919050565b600067ffffffffffffffff82111561018b5761018a6100f5565b5b610194826100e4565b9050602081019050919050565b60005b838110156101bf5780820151818401526020810190506101a4565b60008484015250505050565b60006101de6101d984610170565b610155565b9050828152602081018484840111156101fa576101f96100df565b5b6102058482856101a1565b509392505050565b600082601f830112610222576102216100da565b5b81516102328482602086016101cb565b91505092915050565b6000819050919050565b61024e8161023b565b811461025957600080fd5b50565b60008151905061026b81610245565b92915050565b600073ffffffffffffffffffffffffffffffffffffffff82169050919050565b600061029c82610271565b9050919050565b6102ac81610291565b81146102b757600080fd5b50565b6000815190506102c9816102a3565b92915050565b600080600080608085870312156102e9576102e86100d0565b5b600085015167ffffffffffffffff811115610307576103066100d5565b5b6103138782880161020d565b945050602085015167ffffffffffffffff811115610334576103336100d5565b5b6103408782880161020d565b93505060406103518782880161025c565b9250506060610362878288016102ba565b91505092959194509250565b600081519050919050565b7f4e487b7100000000000000000000000000000000000000000000000000000000600052602260045260246000fd5b600060028204905060018216806103c057607f821691505b6020821081036103d3576103d2610379565b5b50919050565b60008190508160005260206000209050919050565b60006020601f8301049050919050565b600082821b905092915050565b60006008830261043b7fffffffffffffffffffffffffffffffffffffffffffffffffffffffffffffffff826103fe565b61044586836103fe565b95508019841693508086168417925050509392505050565b6000819050919050565b600061048261047d6104788461023b565b61045d565b61023b565b9050919050565b6000819050919050565b61049c83610467565b6104b06104a882610489565b84845461040b565b825550505050565b600090565b6104c56104b8565b6104d0818484610493565b505050565b5b818110156104f4576104e96000826104bd565b6001810190506104d6565b5050565b601f8211156105395761050a816103d9565b610513846103ee565b81016020851015610522578190505b61053661052e856103ee565b8301826104d5565b50505b505050565b600082821c905092915050565b600061055c6000198460080261053e565b1980831691505092915050565b6000610575838361054b565b9150826002028217905092915050565b61058e8261036e565b67ffffffffffffffff8111156105a7576105a66100f5565b5b6105b182546103a8565b6105bc8282856104f8565b600060209050601f8311600181146105ef57600084156105dd578287015190505b6105e78582610569565b86555061064f565b601f1984166105fd866103d9565b60005b8281101561062557848901518255600182019150602085019450602081019050610600565b86831015610642578489015161063e601f89168261054b565b8355505b6001600288020188555050505b505050505050565b61090c806106666000396000f3fe60806040526004361061006f5760003560e01c80637a3a0e841161004e5780637a3a0e84146100d45780638da5cb5b146100ff5780639d9a7fe91461012a578063ab96cc4c146101555761006f565b80625c33e11461007457806306fdde031461007e5780637284e416146100a9575b600080fd5b61007c610180565b005b34801561008a57600080fd5b5061009361027b565b6040516100a09190610598565b60405180910390f35b3480156100b557600080fd5b506100be610309565b6040516100cb9190610598565b60405180910390f35b3480156100e057600080fd5b506100e9610397565b6040516100f691906105d3565b60405180910390f35b34801561010b57600080fd5b5061011461039d565b604051610121919061062f565b60405180910390f35b34801561013657600080fd5b5061013f6103c3565b60405161014c9190610665565b60405180910390f35b34801561016157600080fd5b5061016a6103d6565b60405161017791906105d3565b60405180910390f35b600034116101c3576040517f08c379a00000000000000000000000000000000000000000000000000000000081526004016101ba906106f2565b60405180910390fd5b600560009054906101000a900460ff1615610213576040517f08c379a000000000000000000000000000000000000000000000000000000000815260040161020a9061075e565b60405180910390fd5b346004600082825461022591906107ad565b925050819055507f8e47b87b0ef542cdfa1659c551d88bad38aa7f452d2bbb349ab7530dfec8be8f333460405161025d9291906107e1565b60405180910390a160035460045410610279576102786103dc565b5b565b6000805461028890610839565b80601f01602080910402602001604051908101604052809291908181526020018280546102b490610839565b80156103015780601f106102d657610100808354040283529160200191610301565b820191906000526020600020905b8154815290600101906020018083116102e457829003601f168201915b505050505081565b6001805461031690610839565b80601f016020809104026020016040519081016040528092919081815260200182805461034290610839565b801561038f5780601f106103645761010080835404028352916020019161038f565b820191906000526020600020905b81548152906001019060200180831161037257829003601f168201915b505050505081565b60035481565b600260009054906101000a900473ffffffffffffffffffffffffffffffffffffffff1681565b600560009054906101000a900460ff1681565b60045481565b6003546004541015610423576040517f08c379a000000000000000000000000000000000000000000000000000000000815260040161041a906108b6565b60405180910390fd5b6001600560006101000a81548160ff021916908315150217905550600260009054906101000a900473ffffffffffffffffffffffffffffffffffffffff1673ffffffffffffffffffffffffffffffffffffffff166108fc6004549081150290604051600060405180830381858888f193505050501580156104a8573d6000803e3d6000fd5b507f51da7246fced8d2d4bdbf6b9b38c778c9ed909d312f94398d07fc96bd9f0dfff600260009054906101000a900473ffffffffffffffffffffffffffffffffffffffff166004546040516104fe9291906107e1565b60405180910390a1565b600081519050919050565b600082825260208201905092915050565b60005b83811015610542578082015181840152602081019050610527565b60008484015250505050565b6000601f19601f8301169050919050565b600061056a82610508565b6105748185610513565b9350610584818560208601610524565b61058d8161054e565b840191505092915050565b600060208201905081810360008301526105b2818461055f565b905092915050565b6000819050919050565b6105cd816105ba565b82525050565b60006020820190506105e860008301846105c4565b92915050565b600073ffffffffffffffffffffffffffffffffffffffff82169050919050565b6000610619826105ee565b9050919050565b6106298161060e565b82525050565b60006020820190506106446000830184610620565b92915050565b60008115159050919050565b61065f8161064a565b82525050565b600060208201905061067a6000830184610656565b92915050565b7f436f6e747269627574696f6e206d75737420626520677265617465722074686160008201527f6e20300000000000000000000000000000000000000000000000000000000000602082015250565b60006106dc602383610513565b91506106e782610680565b604082019050919050565b6000602082019050818103600083015261070b816106cf565b9050919050565b7f50726f6a65637420616c726561647920636f6d706c6574656400000000000000600082015250565b6000610748601983610513565b915061075382610712565b602082019050919050565b600060208201905081810360008301526107778161073b565b9050919050565b7f4e487b7100000000000000000000000000000000000000000000000000000000600052601160045260246000fd5b60006107b8826105ba565b91506107c3836105ba565b92508282019050808211156107db576107da61077e565b5b92915050565b60006040820190506107f66000830185610620565b61080360208301846105c4565b9392505050565b7f4e487b7100000000000000000000000000000000000000000000000000000000600052602260045260246000fd5b6000600282049050600182168061085157607f821691505b6020821081036108645761086361080a565b5b50919050565b7f46756e64696e6720676f616c206e6f7420726561636865640000000000000000600082015250565b60006108a0601883610513565b91506108ab8261086a565b602082019050919050565b600060208201905081810360008301526108cf81610893565b905091905056fea264697066735822122011469270f5aabe587a1354832e65799b2a8d353b7c224d296f439cc51fcc5f9d64736f6c634300081c0033",
  "linkReferences": {},
  "deployedLinkReferences": {}
}