{
  "_format": "hh-sol-artifact-1",
  "contractName": "Project",
  "sourceName": "contracts/Project.sol",
  "abi": [
    {
      "inputs": [
        {
          "internalType": "string",
          "name": "_name",
          "type": "string"
        },
        {
          "internalType": "string",
          "name": "_description",
          "type": "string"
        },
        {
          "internalType": "uint256",
          "name": "_fundingGoal",
          "type": "uint256"
        },
        {
          "internalType": "address",
          "name": "_owner",
          "type": "address"
        }
      ],
      "stateMutability": "nonpayable",
      "type": "constructor"
    },
    {
      "anonymous": false,
      "inputs": [
        {
          "indexed": false,
          "internalType": "address",
          "name": "contributor",
          "type": "address"
        },
        {
          "indexed": false,
          "internalType": "uint256",
          "name": "amount",
          "type": "uint256"
        }
      ],
      "name": "FundsReceived",
      "type": "event"
    },
    {
      "anonymous": false,
      "inputs": [
        {
          "indexed": false,
          "internalType": "address",
          "name": "projectOwner",
          "type": "address"
        },
        {
          "indexed": false,
          "internalType": "uint256",
          "name": "totalFunds",
          "type": "uint256"
        }
      ],
      "name": "ProjectCompleted",
      "type": "event"
    },
    {
      "inputs": [],
      "name": "completed",
      "outputs": [
        {
          "internalType": "bool",
          "name": "",
          "type": "bool"
        }
      ],
      "stateMutability": "view",
      "type": "function"
    },
    {
      "inputs": [],
      "name": "description",
      "outputs": [
        {
          "internalType": "string",
          "name": "",
          "type": "string"
        }
      ],
      "stateMutability": "view",
      "type": "function"
    },
    {
      "inputs": [],
      "name": "fundingGoal",
      "outputs": [
        {
          "internalType": "uint256",
          "name": "",
          "type": "uint256"
        }
      ],
      "stateMutability": "view",
      "type": "function"
    },
    {
      "inputs": [],
      "name": "name",
      "outputs": [
        {
          "internalType": "string",
          "name": "",
          "type": "string"
        }
      ],
      "stateMutability": "view",
      "type": "function"
    },
    {
      "inputs": [],
      "name": "owner",
      "outputs": [
        {
          "internalType": "address",
          "name": "",
          "type": "address"
        }
      ],
      "stateMutability": "view",
      "type": "function"
    },
    {
      "inputs": [],
      "name": "receivedFunds",
      "outputs": [
        {
          "internalType": "uint256",
          "name": "",
          "type": "uint256"
        }
      ],
      "stateMutability": "view",
      "type": "function"
    },
    {
      "stateMutability": "payable",
      "type": "receive"
    }
  ],
  "bytecode": "0x608060405234801561001057600080fd5b50604051610f57380380610f57833981810160405281019061003291906102cf565b83600090816100419190610585565b5082600190816100519190610585565b508160038190555080600260006101000a81548173ffffffffffffffffffffffffffffffffffffffff021916908373ffffffffffffffffffffffffffffffffffffffff16021790555060006004819055506000600560006101000a81548160ff02191690831515021790555050505050610657565b6000604051905090565b600080fd5b600080fd5b600080fd5b600080fd5b6000601f19601f8301169050919050565b7f4e487b7100000000000000000000000000000000000000000000000000000000600052604160045260246000fd5b61012d826100e4565b810181811067ffffffffffffffff8211171561014c5761014b6100f5565b5b80604052505050565b600061015f6100c6565b905061016b8282610124565b919050565b600067ffffffffffffffff82111561018b5761018a6100f5565b5b610194826100e4565b9050602081019050919050565b60005b838110156101bf5780820151818401526020810190506101a4565b60008484015250505050565b60006101de6101d984610170565b610155565b9050828152602081018484840111156101fa576101f96100df565b5b6102058482856101a1565b509392505050565b600082601f830112610222576102216100da565b5b81516102328482602086016101cb565b91505092915050565b6000819050919050565b61024e8161023b565b811461025957600080fd5b50565b60008151905061026b81610245565b92915050565b600073ffffffffffffffffffffffffffffffffffffffff82169050919050565b600061029c82610271565b9050919050565b6102ac81610291565b81146102b757600080fd5b50565b6000815190506102c9816102a3565b92915050565b600080600080608085870312156102e9576102e86100d0565b5b600085015167ffffffffffffffff811115610307576103066100d5565b5b6103138782880161020d565b945050602085015167ffffffffffffffff811115610334576103336100d5565b5b6103408782880161020d565b93505060406103518782880161025c565b9250506060610362878288016102ba565b91505092959194509250565b600081519050919050565b7f4e487b7100000000000000000000000000000000000000000000000000000000600052602260045260246000fd5b600060028204905060018216806103c057607f821691505b6020821081036103d3576103d2610379565b5b50919050565b60008190508160005260206000209050919050565b60006020601f8301049050919050565b600082821b905092915050565b60006008830261043b7fffffffffffffffffffffffffffffffffffffffffffffffffffffffffffffffff826103fe565b61044586836103fe565b95508019841693508086168417925050509392505050565b6000819050919050565b600061048261047d6104788461023b565b61045d565b61023b565b9050919050565b6000819050919050565b61049c83610467565b6104b06104a882610489565b84845461040b565b825550505050565b600090565b6104c56104b8565b6104d0818484610493565b505050565b5b818110156104f4576104e96000826104bd565b6001810190506104d6565b5050565b601f8211156105395761050a816103d9565b610513846103ee565b81016020851015610522578190505b61053661052e856103ee565b8301826104d5565b50505b505050565b600082821c905092915050565b600061055c6000198460080261053e565b1980831691505092915050565b6000610575838361054b565b9150826002028217905092915050565b61058e8261036e565b67ffffffffffffffff8111156105a7576105a66100f5565b5b6105b182546103a8565b6105bc8282856104f8565b600060209050601f8311600181146105ef57600084156105dd578287015190505b6105e78582610569565b86555061064f565b601f1984166105fd866103d9565b60005b8281101561062557848901518255600182019150602085019450602081019050610600565b86831015610642578489015161063e601f89168261054b565b8355505b6001600288020188555050505b505050505050565b6108f1806106666000396000f3fe6080604052600436106100595760003560e01c806306fdde031461015e5780637284e416146101895780637a3a0e84146101b45780638da5cb5b146101df5780639d9a7fe91461020a578063ab96cc4c1461023557610159565b3661015957600034116100a1576040517f08c379a000000000000000000000000000000000000000000000000000000000815260040161009890610570565b60405180910390fd5b600560009054906101000a900460ff16156100f1576040517f08c379a00000000000000000000000000000000000000000000000000000000081526004016100e8906105dc565b60405180910390fd5b34600460008282546101039190610635565b925050819055507f8e47b87b0ef542cdfa1659c551d88bad38aa7f452d2bbb349ab7530dfec8be8f333460405161013b9291906106b9565b60405180910390a16003546004541061015757610156610260565b5b005b600080fd5b34801561016a57600080fd5b5061017361038c565b6040516101809190610761565b60405180910390f35b34801561019557600080fd5b5061019e61041a565b6040516101ab9190610761565b60405180910390f35b3480156101c057600080fd5b506101c96104a8565b6040516101d69190610783565b60405180910390f35b3480156101eb57600080fd5b506101f46104ae565b604051610201919061079e565b60405180910390f35b34801561021657600080fd5b5061021f6104d4565b60405161022c91906107d4565b60405180910390f35b34801561024157600080fd5b5061024a6104e7565b6040516102579190610783565b60405180910390f35b60035460045410156102a7576040517f08c379a000000000000000000000000000000000000000000000000000000000815260040161029e9061083b565b60405180910390fd5b6001600560006101000a81548160ff021916908315150217905550600260009054906101000a900473ffffffffffffffffffffffffffffffffffffffff1673ffffffffffffffffffffffffffffffffffffffff166108fc6004549081150290604051600060405180830381858888f1935050505015801561032c573d6000803e3d6000fd5b507f51da7246fced8d2d4bdbf6b9b38c778c9ed909d312f94398d07fc96bd9f0dfff600260009054906101000a900473ffffffffffffffffffffffffffffffffffffffff166004546040516103829291906106b9565b60405180910390a1565b600080546103999061088a565b80601f01602080910402602001604051908101604052809291908181526020018280546103c59061088a565b80156104125780601f106103e757610100808354040283529160200191610412565b820191906000526020600020905b8154815290600101906020018083116103f557829003601f168201915b505050505081565b600180546104279061088a565b80601f01602080910402602001604051908101604052809291908181526020018280546104539061088a565b80156104a05780601f10610475576101008083540402835291602001916104a0565b820191906000526020600020905b81548152906001019060200180831161048357829003601f168201915b505050505081565b60035481565b600260009054906101000a900473ffffffffffffffffffffffffffffffffffffffff1681565b600560009054906101000a900460ff1681565b60045481565b600082825260208201905092915050565b7f436f6e747269627574696f6e206d75737420626520677265617465722074686160008201527f6e20300000000000000000000000000000000000000000000000000000000000602082015250565b600061055a6023836104ed565b9150610565826104fe565b604082019050919050565b600060208201905081810360008301526105898161054d565b9050919050565b7f50726f6a65637420616c726561647920636f6d706c6574656400000000000000600082015250565b60006105c66019836104ed565b91506105d182610590565b602082019050919050565b600060208201905081810360008301526105f5816105b9565b9050919050565b6000819050919050565b7f4e487b7100000000000000000000000000000000000000000000000000000000600052601160045260246000fd5b6000610640826105fc565b915061064b836105fc565b925082820190508082111561066357610662610606565b5b92915050565b600073ffffffffffffffffffffffffffffffffffffffff82169050919050565b600061069482610669565b9050919050565b6106a481610689565b82525050565b6106b3816105fc565b82525050565b60006040820190506106ce600083018561069b565b6106db60208301846106aa565b9392505050565b600081519050919050565b60005b8381101561070b5780820151818401526020810190506106f0565b60008484015250505050565b6000601f19601f8301169050919050565b6000610733826106e2565b61073d81856104ed565b935061074d8185602086016106ed565b61075681610717565b840191505092915050565b6000602082019050818103600083015261077b8184610728565b905092915050565b600060208201905061079860008301846106aa565b92915050565b60006020820190506107b3600083018461069b565b92915050565b60008115159050919050565b6107ce816107b9565b82525050565b60006020820190506107e960008301846107c5565b92915050565b7f46756e64696e6720676f616c206e6f7420726561636865640000000000000000600082015250565b60006108256018836104ed565b9150610830826107ef565b602082019050919050565b6000602082019050818103600083015261085481610818565b9050919050565b7f4e487b7100000000000000000000000000000000000000000000000000000000600052602260045260246000fd5b600060028204905060018216806108a257607f821691505b6020821081036108b5576108b461085b565b5b5091905056fea26469706673582212205c63cff86d50eb9ef8d064b3af2d595e220f3017467078cf44d4aee4b21773f764736f6c634300081c0033",
  "linkReferences": {},
  "deployedLinkReferences": {}
}