{
  "_format": "hh-sol-artifact-1",
  "contractName": "Project",
  "sourceName": "contracts/Project.sol",
  "abi": [
    {
      "inputs": [
        {
          "internalType": "string",
          "name": "_name",
          "type": "string"
        },
        {
          "internalType": "string",
          "name": "_description",
          "type": "string"
        },
        {
          "internalType": "uint256",
          "name": "_fundingGoal",
          "type": "uint256"
        },
        {
          "internalType": "address",
          "name": "_owner",
          "type": "address"
        }
      ],
      "stateMutability": "nonpayable",
      "type": "constructor"
    },
    {
      "anonymous": false,
      "inputs": [
        {
          "indexed": false,
          "internalType": "address",
          "name": "contributor",
          "type": "address"
        },
        {
          "indexed": false,
          "internalType": "uint256",
          "name": "amount",
          "type": "uint256"
        }
      ],
      "name": "FundsReceived",
      "type": "event"
    },
    {
      "anonymous": false,
      "inputs": [
        {
          "indexed": false,
          "internalType": "address",
          "name": "projectOwner",
          "type": "address"
        },
        {
          "indexed": false,
          "internalType": "uint256",
          "name": "amount",
          "type": "uint256"
        }
      ],
      "name": "FundsWithdrawn",
      "type": "event"
    },
    {
      "anonymous": false,
      "inputs": [
        {
          "indexed": false,
          "internalType": "address",
          "name": "projectOwner",
          "type": "address"
        },
        {
          "indexed": false,
          "internalType": "uint256",
          "name": "totalFunds",
          "type": "uint256"
        }
      ],
      "name": "ProjectCompleted",
      "type": "event"
    },
    {
      "inputs": [],
      "name": "completed",
      "outputs": [
        {
          "internalType": "bool",
          "name": "",
          "type": "bool"
        }
      ],
      "stateMutability": "view",
      "type": "function"
    },
    {
      "inputs": [],
      "name": "description",
      "outputs": [
        {
          "internalType": "string",
          "name": "",
          "type": "string"
        }
      ],
      "stateMutability": "view",
      "type": "function"
    },
    {
      "inputs": [],
      "name": "finalAmount",
      "outputs": [
        {
          "internalType": "uint256",
          "name": "",
          "type": "uint256"
        }
      ],
      "stateMutability": "view",
      "type": "function"
    },
    {
      "inputs": [],
      "name": "fundingGoal",
      "outputs": [
        {
          "internalType": "uint256",
          "name": "",
          "type": "uint256"
        }
      ],
      "stateMutability": "view",
      "type": "function"
    },
    {
      "inputs": [],
      "name": "getBalance",
      "outputs": [
        {
          "internalType": "uint256",
          "name": "",
          "type": "uint256"
        }
      ],
      "stateMutability": "view",
      "type": "function"
    },
    {
      "inputs": [],
      "name": "getFinalAmount",
      "outputs": [
        {
          "internalType": "uint256",
          "name": "",
          "type": "uint256"
        }
      ],
      "stateMutability": "view",
      "type": "function"
    },
    {
      "inputs": [],
      "name": "name",
      "outputs": [
        {
          "internalType": "string",
          "name": "",
          "type": "string"
        }
      ],
      "stateMutability": "view",
      "type": "function"
    },
    {
      "inputs": [],
      "name": "owner",
      "outputs": [
        {
          "internalType": "address",
          "name": "",
          "type": "address"
        }
      ],
      "stateMutability": "view",
      "type": "function"
    },
    {
      "inputs": [],
      "name": "receivedFunds",
      "outputs": [
        {
          "internalType": "uint256",
          "name": "",
          "type": "uint256"
        }
      ],
      "stateMutability": "view",
      "type": "function"
    },
    {
      "inputs": [],
      "name": "withdrawFunds",
      "outputs": [],
      "stateMutability": "nonpayable",
      "type": "function"
    },
    {
      "stateMutability": "payable",
      "type": "receive"
    }
  ],
  "bytecode": "0x608060405234801561001057600080fd5b50604051611341380380611341833981810160405281019061003291906102d7565b8360009081610041919061058d565b508260019081610051919061058d565b508160038190555080600260006101000a81548173ffffffffffffffffffffffffffffffffffffffff021916908373ffffffffffffffffffffffffffffffffffffffff160217905550600060048190555060006005819055506000600660006101000a81548160ff0219169083151502179055505050505061065f565b6000604051905090565b600080fd5b600080fd5b600080fd5b600080fd5b6000601f19601f8301169050919050565b7f4e487b7100000000000000000000000000000000000000000000000000000000600052604160045260246000fd5b610135826100ec565b810181811067ffffffffffffffff82111715610154576101536100fd565b5b80604052505050565b60006101676100ce565b9050610173828261012c565b919050565b600067ffffffffffffffff821115610193576101926100fd565b5b61019c826100ec565b9050602081019050919050565b60005b838110156101c75780820151818401526020810190506101ac565b60008484015250505050565b60006101e66101e184610178565b61015d565b905082815260208101848484011115610202576102016100e7565b5b61020d8482856101a9565b509392505050565b600082601f83011261022a576102296100e2565b5b815161023a8482602086016101d3565b91505092915050565b6000819050919050565b61025681610243565b811461026157600080fd5b50565b6000815190506102738161024d565b92915050565b600073ffffffffffffffffffffffffffffffffffffffff82169050919050565b60006102a482610279565b9050919050565b6102b481610299565b81146102bf57600080fd5b50565b6000815190506102d1816102ab565b92915050565b600080600080608085870312156102f1576102f06100d8565b5b600085015167ffffffffffffffff81111561030f5761030e6100dd565b5b61031b87828801610215565b945050602085015167ffffffffffffffff81111561033c5761033b6100dd565b5b61034887828801610215565b935050604061035987828801610264565b925050606061036a878288016102c2565b91505092959194509250565b600081519050919050565b7f4e487b7100000000000000000000000000000000000000000000000000000000600052602260045260246000fd5b600060028204905060018216806103c857607f821691505b6020821081036103db576103da610381565b5b50919050565b60008190508160005260206000209050919050565b60006020601f8301049050919050565b600082821b905092915050565b6000600883026104437fffffffffffffffffffffffffffffffffffffffffffffffffffffffffffffffff82610406565b61044d8683610406565b95508019841693508086168417925050509392505050565b6000819050919050565b600061048a61048561048084610243565b610465565b610243565b9050919050565b6000819050919050565b6104a48361046f565b6104b86104b082610491565b848454610413565b825550505050565b600090565b6104cd6104c0565b6104d881848461049b565b505050565b5b818110156104fc576104f16000826104c5565b6001810190506104de565b5050565b601f82111561054157610512816103e1565b61051b846103f6565b8101602085101561052a578190505b61053e610536856103f6565b8301826104dd565b50505b505050565b600082821c905092915050565b600061056460001984600802610546565b1980831691505092915050565b600061057d8383610553565b9150826002028217905092915050565b61059682610376565b67ffffffffffffffff8111156105af576105ae6100fd565b5b6105b982546103b0565b6105c4828285610500565b600060209050601f8311600181146105f757600084156105e5578287015190505b6105ef8582610571565b865550610657565b601f198416610605866103e1565b60005b8281101561062d57848901518255600182019150602085019450602081019050610608565b8683101561064a5784890151610646601f891682610553565b8355505b6001600288020188555050505b505050505050565b610cd38061066e6000396000f3fe6080604052600436106100955760003560e01c80638da5cb5b116100595780638da5cb5b1461025d5780639d9a7fe914610288578063ab96cc4c146102b3578063ecf5ac89146102de578063f94f45cd1461030957610195565b806306fdde031461019a57806312065fe0146101c557806324600fc3146101f05780637284e416146102075780637a3a0e841461023257610195565b3661019557600034116100dd576040517f08c379a00000000000000000000000000000000000000000000000000000000081526004016100d4906107e8565b60405180910390fd5b600660009054906101000a900460ff161561012d576040517f08c379a000000000000000000000000000000000000000000000000000000000815260040161012490610854565b60405180910390fd5b346004600082825461013f91906108ad565b925050819055507f8e47b87b0ef542cdfa1659c551d88bad38aa7f452d2bbb349ab7530dfec8be8f3334604051610177929190610931565b60405180910390a16003546004541061019357610192610334565b5b005b600080fd5b3480156101a657600080fd5b506101af6103fe565b6040516101bc91906109d9565b60405180910390f35b3480156101d157600080fd5b506101da61048c565b6040516101e791906109fb565b60405180910390f35b3480156101fc57600080fd5b50610205610494565b005b34801561021357600080fd5b5061021c610682565b60405161022991906109d9565b60405180910390f35b34801561023e57600080fd5b50610247610710565b60405161025491906109fb565b60405180910390f35b34801561026957600080fd5b50610272610716565b60405161027f9190610a16565b60405180910390f35b34801561029457600080fd5b5061029d61073c565b6040516102aa9190610a4c565b60405180910390f35b3480156102bf57600080fd5b506102c861074f565b6040516102d591906109fb565b60405180910390f35b3480156102ea57600080fd5b506102f3610755565b60405161030091906109fb565b60405180910390f35b34801561031557600080fd5b5061031e61075b565b60405161032b91906109fb565b60405180910390f35b600354600454101561037b576040517f08c379a000000000000000000000000000000000000000000000000000000000815260040161037290610ab3565b60405180910390fd5b6001600660006101000a81548160ff0219169083151502179055506004546005819055507f51da7246fced8d2d4bdbf6b9b38c778c9ed909d312f94398d07fc96bd9f0dfff600260009054906101000a900473ffffffffffffffffffffffffffffffffffffffff166004546040516103f4929190610931565b60405180910390a1565b6000805461040b90610b02565b80601f016020809104026020016040519081016040528092919081815260200182805461043790610b02565b80156104845780601f1061045957610100808354040283529160200191610484565b820191906000526020600020905b81548152906001019060200180831161046757829003601f168201915b505050505081565b600047905090565b600260009054906101000a900473ffffffffffffffffffffffffffffffffffffffff1673ffffffffffffffffffffffffffffffffffffffff163373ffffffffffffffffffffffffffffffffffffffff1614610524576040517f08c379a000000000000000000000000000000000000000000000000000000000815260040161051b90610ba5565b60405180910390fd5b600660009054906101000a900460ff16610573576040517f08c379a000000000000000000000000000000000000000000000000000000000815260040161056a90610c11565b60405180910390fd5b6000479050600081116105bb576040517f08c379a00000000000000000000000000000000000000000000000000000000081526004016105b290610c7d565b60405180910390fd5b600260009054906101000a900473ffffffffffffffffffffffffffffffffffffffff1673ffffffffffffffffffffffffffffffffffffffff166108fc829081150290604051600060405180830381858888f19350505050158015610623573d6000803e3d6000fd5b507feaff4b37086828766ad3268786972c0cd24259d4c87a80f9d3963a3c3d999b0d600260009054906101000a900473ffffffffffffffffffffffffffffffffffffffff1682604051610677929190610931565b60405180910390a150565b6001805461068f90610b02565b80601f01602080910402602001604051908101604052809291908181526020018280546106bb90610b02565b80156107085780601f106106dd57610100808354040283529160200191610708565b820191906000526020600020905b8154815290600101906020018083116106eb57829003601f168201915b505050505081565b60035481565b600260009054906101000a900473ffffffffffffffffffffffffffffffffffffffff1681565b600660009054906101000a900460ff1681565b60045481565b60055481565b6000600554905090565b600082825260208201905092915050565b7f436f6e747269627574696f6e206d75737420626520677265617465722074686160008201527f6e20300000000000000000000000000000000000000000000000000000000000602082015250565b60006107d2602383610765565b91506107dd82610776565b604082019050919050565b60006020820190508181036000830152610801816107c5565b9050919050565b7f50726f6a65637420616c726561647920636f6d706c6574656400000000000000600082015250565b600061083e601983610765565b915061084982610808565b602082019050919050565b6000602082019050818103600083015261086d81610831565b9050919050565b6000819050919050565b7f4e487b7100000000000000000000000000000000000000000000000000000000600052601160045260246000fd5b60006108b882610874565b91506108c383610874565b92508282019050808211156108db576108da61087e565b5b92915050565b600073ffffffffffffffffffffffffffffffffffffffff82169050919050565b600061090c826108e1565b9050919050565b61091c81610901565b82525050565b61092b81610874565b82525050565b60006040820190506109466000830185610913565b6109536020830184610922565b9392505050565b600081519050919050565b60005b83811015610983578082015181840152602081019050610968565b60008484015250505050565b6000601f19601f8301169050919050565b60006109ab8261095a565b6109b58185610765565b93506109c5818560208601610965565b6109ce8161098f565b840191505092915050565b600060208201905081810360008301526109f381846109a0565b905092915050565b6000602082019050610a106000830184610922565b92915050565b6000602082019050610a2b6000830184610913565b92915050565b60008115159050919050565b610a4681610a31565b82525050565b6000602082019050610a616000830184610a3d565b92915050565b7f46756e64696e6720676f616c206e6f7420726561636865640000000000000000600082015250565b6000610a9d601883610765565b9150610aa882610a67565b602082019050919050565b60006020820190508181036000830152610acc81610a90565b9050919050565b7f4e487b7100000000000000000000000000000000000000000000000000000000600052602260045260246000fd5b60006002820490506001821680610b1a57607f821691505b602082108103610b2d57610b2c610ad3565b5b50919050565b7f4f6e6c79206f776e65722063616e2063616c6c20746869732066756e6374696f60008201527f6e00000000000000000000000000000000000000000000000000000000000000602082015250565b6000610b8f602183610765565b9150610b9a82610b33565b604082019050919050565b60006020820190508181036000830152610bbe81610b82565b9050919050565b7f50726f6a656374206e6f7420636f6d706c657465642079657400000000000000600082015250565b6000610bfb601983610765565b9150610c0682610bc5565b602082019050919050565b60006020820190508181036000830152610c2a81610bee565b9050919050565b7f4e6f2066756e647320617661696c61626c650000000000000000000000000000600082015250565b6000610c67601283610765565b9150610c7282610c31565b602082019050919050565b60006020820190508181036000830152610c9681610c5a565b905091905056fea26469706673582212206e81ba292ddc086567997cd46097ed8799c66602d533b64bb0fd4dd2edce0ef464736f6c634300081c0033",
  "linkReferences": {},
  "deployedLinkReferences": {}
}