{
  "_format": "hh-sol-artifact-1",
  "contractName": "Project",
  "sourceName": "contracts/Project.sol",
  "abi": [
    {
      "inputs": [
        {
          "internalType": "string",
          "name": "_name",
          "type": "string"
        },
        {
          "internalType": "string",
          "name": "_description",
          "type": "string"
        },
        {
          "internalType": "uint256",
          "name": "_fundingGoal",
          "type": "uint256"
        },
        {
          "internalType": "address",
          "name": "_owner",
          "type": "address"
        }
      ],
      "stateMutability": "nonpayable",
      "type": "constructor"
    },
    {
      "anonymous": false,
      "inputs": [
        {
          "indexed": false,
          "internalType": "address",
          "name": "contributor",
          "type": "address"
        },
        {
          "indexed": false,
          "internalType": "uint256",
          "name": "amount",
          "type": "uint256"
        }
      ],
      "name": "FundsReceived",
      "type": "event"
    },
    {
      "anonymous": false,
      "inputs": [
        {
          "indexed": false,
          "internalType": "address",
          "name": "projectOwner",
          "type": "address"
        },
        {
          "indexed": false,
          "internalType": "uint256",
          "name": "totalFunds",
          "type": "uint256"
        }
      ],
      "name": "ProjectCompleted",
      "type": "event"
    },
    {
      "inputs": [],
      "name": "completed",
      "outputs": [
        {
          "internalType": "bool",
          "name": "",
          "type": "bool"
        }
      ],
      "stateMutability": "view",
      "type": "function"
    },
    {
      "inputs": [],
      "name": "description",
      "outputs": [
        {
          "internalType": "string",
          "name": "",
          "type": "string"
        }
      ],
      "stateMutability": "view",
      "type": "function"
    },
    {
      "inputs": [],
      "name": "fundingGoal",
      "outputs": [
        {
          "internalType": "uint256",
          "name": "",
          "type": "uint256"
        }
      ],
      "stateMutability": "view",
      "type": "function"
    },
    {
      "inputs": [],
      "name": "getBalance",
      "outputs": [
        {
          "internalType": "uint256",
          "name": "",
          "type": "uint256"
        }
      ],
      "stateMutability": "view",
      "type": "function"
    },
    {
      "inputs": [],
      "name": "name",
      "outputs": [
        {
          "internalType": "string",
          "name": "",
          "type": "string"
        }
      ],
      "stateMutability": "view",
      "type": "function"
    },
    {
      "inputs": [],
      "name": "owner",
      "outputs": [
        {
          "internalType": "address",
          "name": "",
          "type": "address"
        }
      ],
      "stateMutability": "view",
      "type": "function"
    },
    {
      "inputs": [],
      "name": "receivedFunds",
      "outputs": [
        {
          "internalType": "uint256",
          "name": "",
          "type": "uint256"
        }
      ],
      "stateMutability": "view",
      "type": "function"
    },
    {
      "stateMutability": "payable",
      "type": "receive"
    }
  ],
  "bytecode": "0x608060405234801561001057600080fd5b50604051610fa5380380610fa5833981810160405281019061003291906102cf565b83600090816100419190610585565b5082600190816100519190610585565b508160038190555080600260006101000a81548173ffffffffffffffffffffffffffffffffffffffff021916908373ffffffffffffffffffffffffffffffffffffffff16021790555060006004819055506000600560006101000a81548160ff02191690831515021790555050505050610657565b6000604051905090565b600080fd5b600080fd5b600080fd5b600080fd5b6000601f19601f8301169050919050565b7f4e487b7100000000000000000000000000000000000000000000000000000000600052604160045260246000fd5b61012d826100e4565b810181811067ffffffffffffffff8211171561014c5761014b6100f5565b5b80604052505050565b600061015f6100c6565b905061016b8282610124565b919050565b600067ffffffffffffffff82111561018b5761018a6100f5565b5b610194826100e4565b9050602081019050919050565b60005b838110156101bf5780820151818401526020810190506101a4565b60008484015250505050565b60006101de6101d984610170565b610155565b9050828152602081018484840111156101fa576101f96100df565b5b6102058482856101a1565b509392505050565b600082601f830112610222576102216100da565b5b81516102328482602086016101cb565b91505092915050565b6000819050919050565b61024e8161023b565b811461025957600080fd5b50565b60008151905061026b81610245565b92915050565b600073ffffffffffffffffffffffffffffffffffffffff82169050919050565b600061029c82610271565b9050919050565b6102ac81610291565b81146102b757600080fd5b50565b6000815190506102c9816102a3565b92915050565b600080600080608085870312156102e9576102e86100d0565b5b600085015167ffffffffffffffff811115610307576103066100d5565b5b6103138782880161020d565b945050602085015167ffffffffffffffff811115610334576103336100d5565b5b6103408782880161020d565b93505060406103518782880161025c565b9250506060610362878288016102ba565b91505092959194509250565b600081519050919050565b7f4e487b7100000000000000000000000000000000000000000000000000000000600052602260045260246000fd5b600060028204905060018216806103c057607f821691505b6020821081036103d3576103d2610379565b5b50919050565b60008190508160005260206000209050919050565b60006020601f8301049050919050565b600082821b905092915050565b60006008830261043b7fffffffffffffffffffffffffffffffffffffffffffffffffffffffffffffffff826103fe565b61044586836103fe565b95508019841693508086168417925050509392505050565b6000819050919050565b600061048261047d6104788461023b565b61045d565b61023b565b9050919050565b6000819050919050565b61049c83610467565b6104b06104a882610489565b84845461040b565b825550505050565b600090565b6104c56104b8565b6104d0818484610493565b505050565b5b818110156104f4576104e96000826104bd565b6001810190506104d6565b5050565b601f8211156105395761050a816103d9565b610513846103ee565b81016020851015610522578190505b61053661052e856103ee565b8301826104d5565b50505b505050565b600082821c905092915050565b600061055c6000198460080261053e565b1980831691505092915050565b6000610575838361054b565b9150826002028217905092915050565b61058e8261036e565b67ffffffffffffffff8111156105a7576105a66100f5565b5b6105b182546103a8565b6105bc8282856104f8565b600060209050601f8311600181146105ef57600084156105dd578287015190505b6105e78582610569565b86555061064f565b601f1984166105fd866103d9565b60005b8281101561062557848901518255600182019150602085019450602081019050610600565b86831015610642578489015161063e601f89168261054b565b8355505b6001600288020188555050505b505050505050565b61093f806106666000396000f3fe6080604052600436106100745760003560e01c80637a3a0e841161004e5780637a3a0e84146101fa5780638da5cb5b146102255780639d9a7fe914610250578063ab96cc4c1461027b57610174565b806306fdde031461017957806312065fe0146101a45780637284e416146101cf57610174565b3661017457600034116100bc576040517f08c379a00000000000000000000000000000000000000000000000000000000081526004016100b3906105be565b60405180910390fd5b600560009054906101000a900460ff161561010c576040517f08c379a00000000000000000000000000000000000000000000000000000000081526004016101039061062a565b60405180910390fd5b346004600082825461011e9190610683565b925050819055507f8e47b87b0ef542cdfa1659c551d88bad38aa7f452d2bbb349ab7530dfec8be8f3334604051610156929190610707565b60405180910390a160035460045410610172576101716102a6565b5b005b600080fd5b34801561018557600080fd5b5061018e6103d2565b60405161019b91906107af565b60405180910390f35b3480156101b057600080fd5b506101b9610460565b6040516101c691906107d1565b60405180910390f35b3480156101db57600080fd5b506101e4610468565b6040516101f191906107af565b60405180910390f35b34801561020657600080fd5b5061020f6104f6565b60405161021c91906107d1565b60405180910390f35b34801561023157600080fd5b5061023a6104fc565b60405161024791906107ec565b60405180910390f35b34801561025c57600080fd5b50610265610522565b6040516102729190610822565b60405180910390f35b34801561028757600080fd5b50610290610535565b60405161029d91906107d1565b60405180910390f35b60035460045410156102ed576040517f08c379a00000000000000000000000000000000000000000000000000000000081526004016102e490610889565b60405180910390fd5b6001600560006101000a81548160ff021916908315150217905550600260009054906101000a900473ffffffffffffffffffffffffffffffffffffffff1673ffffffffffffffffffffffffffffffffffffffff166108fc6004549081150290604051600060405180830381858888f19350505050158015610372573d6000803e3d6000fd5b507f51da7246fced8d2d4bdbf6b9b38c778c9ed909d312f94398d07fc96bd9f0dfff600260009054906101000a900473ffffffffffffffffffffffffffffffffffffffff166004546040516103c8929190610707565b60405180910390a1565b600080546103df906108d8565b80601f016020809104026020016040519081016040528092919081815260200182805461040b906108d8565b80156104585780601f1061042d57610100808354040283529160200191610458565b820191906000526020600020905b81548152906001019060200180831161043b57829003601f168201915b505050505081565b600047905090565b60018054610475906108d8565b80601f01602080910402602001604051908101604052809291908181526020018280546104a1906108d8565b80156104ee5780601f106104c3576101008083540402835291602001916104ee565b820191906000526020600020905b8154815290600101906020018083116104d157829003601f168201915b505050505081565b60035481565b600260009054906101000a900473ffffffffffffffffffffffffffffffffffffffff1681565b600560009054906101000a900460ff1681565b60045481565b600082825260208201905092915050565b7f436f6e747269627574696f6e206d75737420626520677265617465722074686160008201527f6e20300000000000000000000000000000000000000000000000000000000000602082015250565b60006105a860238361053b565b91506105b38261054c565b604082019050919050565b600060208201905081810360008301526105d78161059b565b9050919050565b7f50726f6a65637420616c726561647920636f6d706c6574656400000000000000600082015250565b600061061460198361053b565b915061061f826105de565b602082019050919050565b6000602082019050818103600083015261064381610607565b9050919050565b6000819050919050565b7f4e487b7100000000000000000000000000000000000000000000000000000000600052601160045260246000fd5b600061068e8261064a565b91506106998361064a565b92508282019050808211156106b1576106b0610654565b5b92915050565b600073ffffffffffffffffffffffffffffffffffffffff82169050919050565b60006106e2826106b7565b9050919050565b6106f2816106d7565b82525050565b6107018161064a565b82525050565b600060408201905061071c60008301856106e9565b61072960208301846106f8565b9392505050565b600081519050919050565b60005b8381101561075957808201518184015260208101905061073e565b60008484015250505050565b6000601f19601f8301169050919050565b600061078182610730565b61078b818561053b565b935061079b81856020860161073b565b6107a481610765565b840191505092915050565b600060208201905081810360008301526107c98184610776565b905092915050565b60006020820190506107e660008301846106f8565b92915050565b600060208201905061080160008301846106e9565b92915050565b60008115159050919050565b61081c81610807565b82525050565b60006020820190506108376000830184610813565b92915050565b7f46756e64696e6720676f616c206e6f7420726561636865640000000000000000600082015250565b600061087360188361053b565b915061087e8261083d565b602082019050919050565b600060208201905081810360008301526108a281610866565b9050919050565b7f4e487b7100000000000000000000000000000000000000000000000000000000600052602260045260246000fd5b600060028204905060018216806108f057607f821691505b602082108103610903576109026108a9565b5b5091905056fea264697066735822122096db79b6066b4813b2b66898ee41dd2059543557fff9144b769e288ca897313264736f6c634300081c0033",
  "linkReferences": {},
  "deployedLinkReferences": {}
}